:020000040800F2
:10000000D82D002091070008DD030008DF03000859
:10001000E3030008E7030008EB030008000000000A
:10002000000000000000000000000000EF030008D6
:10003000F103000800000000F3030008F5030008C6
:10004000AB070008AB070008AB070008AB070008C8
:10005000AB070008AB070008AB070008AB070008B8
:10006000AB070008AB070008AB070008AB070008A8
:10007000AB070008AB070008AB070008AB07000898
:10008000AB070008AB070008AB070008AB07000888
:10009000AB070008AB070008AB070008AB07000878
:1000A000AB070008AB070008AB070008AB07000868
:1000B000AB070008AB070008AB070008AB07000858
:1000C000AB070008AB070008AB070008AB07000848
:1000D000AB070008AB070008AB070008AB07000838
:1000E000AB070008AB070008AB07000800F002F8F8
:1000F00000F03AF80AA090E8000C82448344AAF188
:100100000107DA4501D100F02FF8AFF2090EBAE885
:100110000F0013F0010F18BFFB1A43F0010318473B
:1001200040BF000060BF0000103A24BF78C878C10B
:10013000FAD8520724BF30C830C144BF04680C60ED
:10014000704700000023002400250026103A28BF35
:1001500078C1FBD8520728BF30C148BF0B60704739
:100160001FB51FBD10B510BD02F06EF91146FFF7A7
:10017000F7FF00F009F802F0A0F903B4FFF7F2FF6F
:1001800003BC00F0A5FA00000EB5002211464FF4A2
:10019000E13000F0ACFA6EA002F0F0F874A002F0CA
:1001A000EDF800F019FA00F08DFA01F003F9CEE055
:1001B00001F027FA7249734801F0F1FA01F020FBCF
:1001C000022000F06AFA01F01CFA6F496F4801F052
:1001D000E6FA01F015FB022000F05FFA01F011FAD7
:1001E00001F019FB01F00CFB022000F056FAFF2091
:1001F0004FF48773C82211460090654801F030FB28
:10020000FF204FF48773C82211460090614801F027
:1002100027FB01F05DFAFF2001F082FC012003467C
:1002200000220A210090052001F0AFFC01200223EA
:10023000002219210090052001F0A7FC01200323D2
:10024000002228210090052001F09FFC01200423BA
:10025000002237210090052001F097FC00200121A9
:10026000CDE90001322337220A2102900F2001F04C
:10027000DDFC00200121CDE900010A2337223221D3
:1002800002900F2001F0D2FC0120002100913223C6
:100290003722CDE901100A210F2001F039FD01209C
:1002A000FF22CDE9002032236E220A21029046204F
:1002B00001F02EFD012000210B461222CDE9001095
:1002C0001E21872001F07DFD0120009000231222D5
:1002D0001E210190B02001F074FD0020FF212E4B63
:1002E0002EA2CDE900104B210A2001F0D2FE002001
:1002F000FF212C4B2CA2CDE9001064210A2001F033
:10030000C8FEFF2000902C4B2CA2822101900A20D5
:1003100001F0BFFEFF2000902C4B2DA2A0210190E8
:100320000A2001F0B6FE1B49194801F038F901F026
:1003300067FA022000F0B1F901F063F901F06BFAFD
:1003400001F05EFA022000F0A8F900BFFEE72FE7F7
:100350000D0A2D2D20312E3534696E6368206570AD
:10036000617065722064656D6F202D2D0D0A00008F
:1003700053544D333246313033433854360D0A002E
:100380005C380008D42400086C5F0008E44B0008C7
:1003900068000020F01300203000002061626364D8
:1003A0006566670038000020414243616263303176
:1003B000323334350000000040000020312E353447
:1003C0002220452D50617065720000004800002019
:1003D0005345454E4752454154000000704700BF09
:1003E000FEE700BFFEE700BFFEE700BFFEE7704785
:1003F00070477047704700000CB5002001900090D6
:100400006C48006840F480306A49086000BF694861
:10041000006800F4003000900198401C01900098A2
:1004200018B90198B0F5A06FF1D16248006800F4E6
:10043000003010B10120009001E0002000900098F1
:10044000012843D15C48006840F010005A49086018
:100450000846006820F0030008600846006840F085
:1004600002000860534840685249486008464068A6
:1004700048600846406840F480604860084640682C
:1004800020F47C1048600846406840F4E81048605A
:100490000846006840F08070086000BF454800686A
:1004A00000F000700028F9D04248406820F00300B6
:1004B000404948600846406840F00200486000BF7C
:1004C0003C48406800F00C000828F9D10CBD10B57C
:1004D000FFF792FF10BD10B53648006840F00100EC
:1004E000344908600846406834490840314948604A
:1004F00008460068324908402E49086008460068EE
:1005000020F4802008600846406820F4FE0048601F
:100510004FF41F008860FFF7DAFF4FF000602949B1
:10052000086010BD10B5002100200022214B5B683F
:1005300003F00C0121B1042906D0082928D107E0D5
:10054000214B224C236027E01F4B204C236023E0EB
:10055000184B5B6803F47010164B5B6803F4803231
:10056000022303EB904022B9194B4343174C2360FD
:100570000DE0104B5B6803F4003323B1144B43438D
:10058000124C236003E0104B4343104C236003E004
:100590000D4B0E4C236000BF00BF064B5B68C3F3DE
:1005A00003130C4CE15C094B1B68CB40074C2360E8
:1005B00010BD000000100240002002400000FFF8C3
:1005C000FFFFF6FE08ED00E000127A0000000020B8
:1005D00000093D000400002010B56FF0040000F099
:1005E00046F9344800683449B0FBF1F033490870EB
:1005F0000846007800EB4001C1EBC0104FF6FF71D8
:1006000001EAC0002E49088010BD01462B4A12782D
:100610004A434FF0E0235A6100229A611A46126958
:1006200042F001021A6100BF4FF0E022106900F0B1
:1006300001021AB100F48032002AF5D04FF0E02216
:10064000126922F001024FF0E0231A6100229A6140
:10065000704701461A4A12884A434FF0E0235A6114
:1006600000229A611A46126942F001021A6100BF23
:100670004FF0E022106900F001021AB100F480325C
:10068000002AF5D04FF0E022126922F001024FF06B
:10069000E0231A6100229A61704730B504460025B4
:1006A00005E04FF47A70FFF7D4FF681C85B2A542CD
:1006B000F7DB30BD0000002000127A00140000209B
:1006C0001600002010B54FF4A06000F081F810BDB6
:1006D000014600BF704700BF2B4A128802F040025B
:1006E000002AF9D0C2B2284B1B1D1A80704770B582
:1006F00086B004460E461546012144F2050000F07E
:10070000F1FB4FF40070ADF8140003208DF81600D3
:1007100018208DF8170005A91C4800F027F94FF4A0
:100720008060ADF8140004208DF8170005A9174863
:1007300000F01CF925208DF800008DF801608DF87F
:10074000025001208DF80300684600F046F801943D
:100750000020ADF80800ADF80A00ADF80C00ADF8C7
:1007600010000C20ADF80E0001A9074800F061FC54
:10077000012240F22551044800F0F3FC0121024817
:1007800000F0E3FC06B070BD0038014000080140F5
:100790000948804709480047FEE7FEE7FEE7FEE715
:1007A000FEE7FEE7FEE7FEE7FEE7FEE70448054951
:1007B000054A064B70470000D7040008ED0000080A
:1007C000D8270020D82D0020D8290020D8290020A3
:1007D00031490143314A1160704770B5002100234F
:1007E0000F22C47804B32D4C246804F4E064C4F5EB
:1007F000E064210AC1F10403CA40447804FA03F119
:100800008478144021430901254C0678A1550478C9
:1008100004F01F050124AC4005786D11AD0005F111
:10082000E025C5F8004109E0047804F01F05012423
:10083000AC401C4D0678761145F8264070BD1A4A2A
:100840000A400243154B1B1F1A60704739B1134A07
:10085000121D12680243114B1B1D1A6006E00F4A5D
:10086000121D126882430D4B1B1D1A60704704282D
:1008700008D14FF0E021096941F004014FF0E02276
:10088000116107E04FF0E021096921F004014FF008
:10089000E0221161704700000000FA050CED00E055
:1008A00000E400E080E100E080FFFF1F10B5044697
:1008B000CC48844208D10121042000F02DFB002106
:1008C000042000F029FB46E0C748844208D10121FA
:1008D000082000F021FB0021082000F01DFB3AE079
:1008E000C248844208D10121102000F015FB0021EC
:1008F000102000F011FB2EE0BD48844208D10121F8
:10090000202000F009FB0021202000F005FB22E060
:10091000B848844208D10121402000F0FDFA0021AE
:10092000402000F0F9FA16E0B348844208D10121D2
:10093000802000F0F1FA0021802000F0EDFA0AE0BA
:10094000AE48844207D10121801500F0E5FA00216C
:10095000A01500F0E1FA10BD10B50121084600F025
:10096000DBFA0021012000F0D7FA10BD2DE9F0419B
:10097000024600250026002000230024002791F8CD
:1009800003C00CF00F0591F803C00CF0100CBCF183
:10099000000F03D091F802C04CEA050591F800C0A1
:1009A000BCF1000F31D0146800202BE04FF0010C97
:1009B0000CFA00F3B1F800C00CEA03069E4220D105
:1009C00083004FF00F0C0CFA03F7BC4305FA03FC4D
:1009D0004CEA040491F803C0BCF1280F06D14FF093
:1009E000010C0CFA00FCC2F814C00AE091F803C034
:1009F000BCF1480F05D14FF0010C0CFA00FCC2F815
:100A000010C0401C0828D1D31460B1F800C0BCF15C
:100A1000FF0F34DD546800202EE000F1080C4FF089
:100A2000010808FA0CF3B1F800C00CEA03069E4274
:100A300021D183004FF00F0C0CFA03F7BC4305FAE9
:100A400003FC4CEA040491F803C0BCF1280F05D163
:100A500000F1080C08FA0CF8C2F8148091F803C0F1
:100A6000BCF1480F07D100F1080C4FF0010808FA5B
:100A70000CF8C2F81080401C0828CED35460BDE8A2
:100A8000F0814FF6FF710180022181700421C17055
:100A900070470246002093680B400BB1012000E034
:100AA000002070470146886880B2704702460020E7
:100AB000D3680B400BB1012000E0002070470146D5
:100AC000C86880B2704701617047416170470AB1E0
:100AD000016100E041617047C16070474FF48032AE
:100AE0000A4382618161826182698269704702463C
:100AF0000020434B18684FF68073184040EA0210FC
:100B000008433F4B186070473E49C8617047F0B5D5
:100B10000A46002300240021002500F00046B6F11B
:100B2000004F02D1364EF16901E0354E7168C0F3D5
:100B3000034583B200F44016B6F5401F08D121F0FA
:100B400070612F4E766826F070662D4F7E6012E041
:100B500000F48016B6F5801F06D1032606FA05F4C8
:100B6000A14341F0706106E0460D360103FA06F636
:100B7000B14341F0706122B1460D360103FA06F629
:100B8000314300F00046B6F1004F02D11C4EF16136
:100B900001E01B4E7160F0BD30B500228B071C0FC9
:100BA0000F2303FA04F2164B08338C1053F8243049
:100BB0009343134C08348D1044F8253023468C1091
:100BC00053F824308C07240F00FA04F423430C4C10
:100BD00008348D1044F8253030BD0A49DC310860F6
:100BE0007047000000080140000C01400010014067
:100BF0000014014000180140001C01400020014089
:100C00000000014000002042DF48006840F0010081
:100C1000DD49086008464068DC490840DA49486018
:100C200008460068DA490840D74908600846006865
:100C300020F4802008600846406820F4FE004860E8
:100C40004FF41F0088607047CF49096821F4803154
:100C5000CD4A11601146096821F480211160B0F578
:100C6000803F03D0B0F5802F0ED106E0C649096859
:100C700041F48031C44A116007E0C349096841F476
:100C8000A021C14A116000E000BF00BF704710B54D
:100C900001460022002300204A11012A02D1BA4C49
:100CA000236806E0022A02D1B74C236A01E0B64C61
:100CB000636A01F01F02012494401C400CB1012022
:100CC00000E0002010BD38B5002000900024002571
:100CD00000BF3120FFF7DBFF05460098401C009065
:100CE0000098B0F5A06F01D0002DF2D03120FFF7B1
:100CF000CEFF08B1012400E00024204638BD0146A3
:100D00000020A14A106820F0F80040EAC1001060FD
:100D10007047A04908607047024600209A4B586807
:100D200020F47C1042EA01031843974B5860704747
:100D300098490866704701460020934A506820F0A1
:100D400003000843506070478F48406800F00C0073
:100D50007047014600208C4A506820F0F00008439C
:100D60005060704701460020874A506820F4E060D8
:100D700008435060704701460020834A506820F4C1
:100D8000605040EAC1005060704729B17E4A527AF3
:100D900002437D4B5A7204E07B4A527A82437A4B7B
:100DA0005A7270477B49D83108607047014600206D
:100DB000754A506820F44040084350607047002155
:100DC000714A20321170704A82F82010012802D036
:100DD00004280AD104E001216B4A2032117005E099
:100DE0000521694A2032117000E000BF00BF704742
:100DF0006949086070476449096A0143624A11629F
:100E00007047654944390860704730B500210022B9
:100E1000002400235C4D6D6805F00C0121B104290C
:100E200005D0082923D105E05C4D056022E05B4D2B
:100E300005601FE0544D6D6805F47012524D6D68E9
:100E400005F48034022505EB92421CB9544D5543FC
:100E500005600BE04C4D6D6805F400351DB1504D3B
:100E60005543056002E04D4D5543056002E04B4D92
:100E7000056000BF00BF444D6D6805F0F001090931
:100E8000484D6B5C0568DD4045603F4D6D6805F47D
:100E9000E061090A434D6B5C4568DD4085603A4D71
:100EA0006D6805F46051C90A3E4D6B5C4568DD40D4
:100EB000C560354D6D6805F44041890B3A4D6B5C5A
:100EC000C568B5FBF3F5056130BD29B12E4A5269FD
:100ED00002432D4B5A6104E02B4A526982432A4B4C
:100EE0005A61704729B1284A92690243264B9A6198
:100EF00004E0254A92698243234B9A61704729B1E5
:100F0000214AD2690243204BDA6104E01E4AD269C9
:100F100082431D4BDA61704729B11B4AD2680243F4
:100F2000194BDA6004E0184AD2688243164BDA6043
:100F3000704729B1144A12690243134B1A6104E045
:100F4000114A12698243104B1A61704712494039A5
:100F5000086070470F49C86470470B49C8717047F3
:100F60000948406A40F0807007494862704701466E
:100F70000020054A92680A400AB1012000E00020E2
:100F80007047014988727047001002400000FFF866
:100F9000FFFFF6FE000042428004424200127A0047
:100FA00000093D001C0000202C00002010B5044664
:100FB000FB48844209D101218803FFF7ADFF0021DE
:100FC0004FF48040FFF7A8FF32E0F648844209D191
:100FD00001214804FFF7ADFF00214FF40030FFF777
:100FE000A8FF25E0F048844209D101218804FFF7D9
:100FF000A0FF00214FF48020FFF79BFF18E0EB4893
:10100000844209D10121C804FFF793FF00214FF466
:101010000020FFF78EFF0BE0E548844208D1012154
:101020000805FFF786FF00214FF48010FFF781FFCE
:1010300010BD2DE9F04786B005460E460024A246B5
:1010400000BFA1460027B08900B100BF2F462C8AFF
:101050004CF6FF700440F08804432C82AC894EF6B5
:10106000F3100440B0883189084371890843044370
:10107000AC81AC8A4FF6FF400440B0890443AC8297
:1010800001A8FFF7C2FEC648874202D1DDF810A0D2
:1010900001E0DDF80CA0A88900F4004040B10AEBA3
:1010A000CA0000EB0A1031684900B0FBF1F807E014
:1010B0000AEBCA0000EB0A1031688900B0FBF1F8B6
:1010C0006420B8FBF0F004012009642101FB1089C1
:1010D000A88900F4004040B1322000EBC900B0FB09
:1010E000F1F000F00700044308E0322000EB0910A3
:1010F0006421B0FBF1F000F00F0004432C8106B036
:10110000BDE8F0874FF41651016000218180C18055
:1011100001810C21418100218181704710B5024677
:101120000020108A4FF2FF0318400B884C8823439D
:101130008C882343CC8823431843108210BD0021A0
:10114000018041808180C180704721B1828942F451
:101150000052828104E082894DF6FF731A40828139
:101160007047F0B50346002400260025002040F615
:101170006A17B94200D100BF1846C1F3421401F00A
:101180001F06012707FA06F5012C01D10C3004E0F7
:10119000022C01D1103000E014301AB107682F433F
:1011A000076002E00768AF430760F0BD1AB1838AA9
:1011B0000B43838202E0838A8B4383827047028AD7
:1011C0004FF6F0731A400282028A0A430282704785
:1011D00082894FF2FF731A40828182890A43828199
:1011E000704721B1828942F00202828104E0828943
:1011F0004FF6FD731A4082817047028A4FF6DF7303
:101200001A400282028A0A430282704721B1028A8E
:1012100042F48042028204E0028A4BF6FF731A40D5
:1012200002827047C1F308028280704701468888B5
:10123000C0F308007047818941F001018181704746
:10124000028BD2B20283028B42EA012202837047F0
:10125000028B02F47F420283028B0A4302837047AF
:1012600021B1828A42F02002828204E0828A4FF613
:10127000DF731A408282704721B1828A42F01002E5
:10128000828204E0828A4FF6EF731A4082827047AE
:1012900021B1828A42F00802828204E0828A4FF6FB
:1012A000F7731A408282704721B1828942F400426A
:1012B000828103E08289C2F30E028281704721B1EC
:1012C000828A42F40062828204E0828A4FF2FF73D3
:1012D0001A4082827047828A4FF6FB731A408282DC
:1012E000828A0A438282704721B1828A42F00202D6
:1012F000828204E0828A4FF6FD731A408282704730
:1013000002460020B1F5007F00D100BF13880B40DA
:101310000BB1012000E00020704701F40072B2F52B
:10132000007F00D100BFCA430280704770B50246FB
:10133000002400230025002040F66A16B14200D1A7
:1013400000BFC1F3421501F01F03012606FA03F3A3
:10135000012D02D19689334006E0022D02D1168A72
:10136000334001E0968A33400C12012606FA04F459
:101370001688344013B10CB1012000E0002070BD8C
:1013800010B50022002340F66A14A14200D100BF2C
:101390000A1201249440A3B2DC43048010BD000073
:1013A000003801400044004000480040004C00402C
:1013B0000050004008B501210C20FFF793FD4FF4C9
:1013C0003040ADF8000010208DF8030003208DF8A8
:1013D00002006946FD48FFF7C9FA4FF41060ADF806
:1013E000000010208DF8030003208DF802006946EC
:1013F000F748FFF7BBFA4FF48050ADF80000282003
:101400008DF8030003208DF802006946F048FFF7CD
:10141000ADFA4FF48070ADF8000010208DF8030095
:1014200003208DF802006946E848FFF79FFA002084
:10143000E849086008BD002117E00022E54B14339D
:101440001A6000F0800222B10122E24B1C331A60C4
:1014500003E00022DF4B1C331A604206100E01220B
:10146000DC4B14331A604A1CD1B20829E5DB704703
:1014700010B504460020D74910310860D649C1F89C
:10148000A0012046FFF7D7FF0120D24910310860A4
:1014900010BD10B504460020CE491031086001206F
:1014A000CD49C1F8A0012046FFF7C5FF0120C94979
:1014B0001031086010BD06E042F6E06100BF0A1E70
:1014C000A1F10101FBD1021EA0F10100F4D170478E
:1014D00000B506E00A20FFF7EEFFC048006800B93B
:1014E00000E0F7E700BF00BD10B501460023B94C8E
:1014F00014342360002217E001F0800323B101239C
:10150000B44C1C34236003E00023B24C1C34236031
:101510000123B04C143423600023B14CC4F8B4311F
:101520004B06190E531CDAB2082AE5DB10BD10B5C4
:1015300004460120A749103108600020A849C1F8DD
:10154000B001A649703108602046FFF7CDFF0120A9
:10155000A349C1F8B00110BD10B5044601209D4952
:101560001031086000209E49C1F8B00101209B495C
:10157000703108602046FFF7B7FF01209849C1F895
:10158000B00110BD00B52220FFF7D1FFF720FFF713
:10159000E3FF2020FFF7CBFFFFF79AFF00BD2DE907
:1015A000F0430746884619264FF0C8092420FFF764
:1015B000BEFF00250AE0002405E005FB0641785C3B
:1015C000FFF7CAFF641CB442F7D36D1C4D45F2D33C
:1015D0002620FFF7ACFF00250DE0002408E005FB06
:1015E000064118F80110C943C8B2FFF7B5FF641CE3
:1015F000B442F4D36D1C4D45EFD3FFF7C3FFBDE8F4
:10160000F08300B5002075497C3108600A20FFF79F
:1016100052FF01207049C1F8AC010A20FFF74BFFCF
:10162000FFF756FF1220FFF782FFFFF751FF01205F
:10163000FFF77DFF0A20FFF73EFFC720FFF78CFF73
:101640000A20FFF738FF0020FFF786FF0A20FFF788
:1016500032FF0020FFF780FF1120FFF768FF012015
:10166000FFF77AFF4420FFF762FF0020FFF774FFC7
:101670001820FFF771FF4520FFF759FFC720FFF73C
:101680006BFF0020FFF768FF0020FFF765FF0020D9
:10169000FFF762FF3C20FFF74AFF0520FFF75CFFE2
:1016A0001820FFF744FF8020FFF756FF4E20FFF77A
:1016B0003EFF0020FFF750FF4F20FFF738FFC72005
:1016C000FFF74AFF0020FFF747FFFFF701FF00BDCC
:1016D00000B5002041497C3108600A20FFF7EBFE8D
:1016E00001203D49C1F8AC010A20FFF7E4FEFFF7F5
:1016F000EFFE1220FFF71BFFFFF7EAFE0120FFF7C6
:1017000016FF0A20FFF7D7FEC720FFF725FF0A20A4
:10171000FFF7D1FE0020FFF71FFF0A20FFF7CBFEE7
:101720000120FFF719FF1120FFF701FF0120FFF74C
:1017300013FF4420FFF7FBFE0020FFF70DFF1820EA
:10174000FFF70AFF4520FFF7F2FEC720FFF704FF6F
:101750000020FFF701FF0020FFF7FEFE0020FFF74B
:10176000FBFE3C20FFF7E3FE0520FFF7F5FE182007
:10177000FFF7DDFE8020FFF7EFFE4E20FFF7D7FEDC
:101780000020FFF7E9FE4F20FFF7D1FEC720FFF74B
:10179000E3FE0020FFF7E0FEFFF79AFE00BD70B504
:1017A00005460E462420FFF7C2FE002404E02878F8
:1017B000FFF7D2FE6D1C641C41F288308442F6D3E0
:1017C0002620FFF7B4FE002413E00000000C0140C7
:1017D00000080140A0812142000021423001214245
:1017E000008021423178C943C8B2FFF7B5FE761CAC
:1017F000641C41F288308442F4D3FFF7C3FE70BD0D
:1018000000B51020FFF793FE0120FFF7A5FE64202E
:10181000FFF751FE00BD30B52420FFF788FE0024FD
:1018200008E0002503E0FF20FFF796FE6D1C192D50
:10183000F9D3641CC82CF4D32620FFF778FE0024CB
:1018400008E0002503E00020FFF786FE6D1C192D3F
:10185000F9D3641CC82CF4D3FFF794FE30BD00000C
:101860002DE9F0410646069F0020F74C20602046F7
:1018700006600181428187810C464FEAE17C01EBE1
:101880005C7C4FEAEC0CA1EBCC0CBCF1000F07D157
:101890000D464FEAE57C05EB5C7C4FEAEC0C08E07A
:1018A00008464FEAE17C01EB5C7C4FEAEC0C0CF162
:1018B000010CDFF89483A8F812C040468282C381ED
:1018C0000020444620820BB1B42B03D1DE48818036
:1018D000C28002E0DC488280C180BDE8F081DA4944
:1018E0000860704730B15A2804D0B42802D0B0F54F
:1018F000877F01D1D449C881704728B1012803D01E
:10190000022801D0032801D1CF49088270472DE970
:10191000F04303460C461546DFF82CC3BCF804C060
:101920009C4505DBDFF820C3BCF806C0A44501DAFE
:10193000BDE8F083DFF810C3BCF80EC0BCF1000FA7
:1019400009D0BCF15A0F09D0BCF1B40F12D0BCF5CC
:10195000877F30D123E0184621462DE0DFF8E8C22A
:10196000BCF808C0ACEB040CACF1010C1FFA8CF015
:10197000194621E0DFF8D0C2BCF808C0ACEB030C7C
:10198000ACF1010C1FFA8CF0DFF8BCC2BCF80AC045
:10199000ACEB040CACF1010C1FFA8CF10CE020460E
:1019A000DFF8A4C2BCF80AC0ACEB030CACF1010C2C
:1019B0001FFA8CF100E0BBE700BFDFF88CC2BCF877
:1019C00010C0BCF1000F09D0BCF1010F07D0BCF171
:1019D000020F0FD0BCF1030F2CD116E02BE0DFF883
:1019E00068C2BCF808C0ACEB000CACF1010C1FFAEB
:1019F0008CF020E0DFF850C2BCF80AC0ACEB010C60
:101A0000ACF1010C1FFA8CF115E0DFF83CC2BCF818
:101A100008C0ACEB000CACF1010C1FFA8CF0DFF845
:101A200028C2BCF80AC0ACEB010CACF1010C1FFAE7
:101A30008CF100E07CE700BFDFF80CC2BCF808C006
:101A4000844505DBDFF800C2BCF80AC08C4500DA2B
:101A50006EE784464FEAE07800EB58784FEAE808F2
:101A6000DFF8E491B9F8129001FB0982DFF8DCC1DC
:101A70001CF80260DFF8D8C11CF802709DB98446DA
:101A80004FEAE07800EB58784FEAE808A0EBC80985
:101A90004FF0800848FA09F826EA0808DFF8AC9108
:101AA00009F802803AE0FF2D13D184464FEAE0782E
:101AB00000EB58784FEAE808A0EBC8094FF080081F
:101AC00048FA09F827EA0808DFF8849109F8028043
:101AD00024E084464FEAE07800EB58784FEAE808C3
:101AE000A0EBC8094FF0800848FA09F848EA060850
:101AF000DFF85C9109F802804FEAE07800EB587853
:101B00004FEAE808A0EBC8094FF0800848FA09F846
:101B100048EA0708DFF8349109F8028000BF07E7B8
:101B200030B5002211E0002109E0474C648A02FB35
:101B30000413474DE854454DE8544C1CA1B2424CA7
:101B4000648A8C42F1DC541CA2B23F4CA48A9442B9
:101B5000E9DC30BD2DE9F04706460F469046994630
:101B6000DDF820A03D460CE0344606E0524629460A
:101B70002046FFF7CCFE601C84B24445F6DB681CAF
:101B800085B24D45F0DBBDE8F0872DE9F04707460B
:101B9000884691461C46DDF820A02B488088B84234
:101BA00003DB2948C088404501DABDE8F087BAF177
:101BB000010F23D100251CE0002613E07819001B3B
:101BC00003D408EB0600001B00D50FE008EB06026B
:101BD000121B91B27A19121B90B24A46FFF797FE78
:101BE000701C06B26000401EB042E7DC00BF681CFB
:101BF00005B26000401EA842DEDC15E0002511E0C1
:101C000000260BE008EB0602521E91B27A19521E12
:101C100090B24A46FFF77BFE701C06B2A642F1DB8B
:101C2000681C05B2A542EBDB00BFBEE72DE9F04F13
:101C300086B004460D4616461F46A0460595301B45
:101C400008D4301B07E0000050000020680000208E
:101C5000F0130020A01B0490781B01D4781B00E037
:101C6000E81B82460498A0EB0A09B44202DD4FF05B
:101C7000FF3000E001200290BD4202DD4FF0FF3056
:101C800000E0012001904FF0000B00BF0BF1010BB1
:101C9000119801280ED103209BFBF0F100FB11B03D
:101CA00040B9012000904046DDE90F230599FFF778
:101CB0006CFF09E0119838B9012000904046DDE939
:101CC0000F230599FFF761FFB04503D10598B8428E
:101CD00000D119E04FEA49000390CAF100010398CE
:101CE000884205DBA9EB0A09029840441FFA80F8F4
:101CF000DDE903018842C9DC049881440199059813
:101D0000084480B20590C1E700BF06B0BDE8F08F7F
:101D10002DE9FE4F81460F4692469846DDE90DB506
:101D20000C9CFE48808848450BDBFC48C088B842C4
:101D300007DBFA488088504503DBF848C0884045F7
:101D400001DABDE8FE8FBBF1010F10D13E460BE07A
:101D50000020334652463146CDE9004502904846C0
:101D6000FFF764FF701C86B24645F1DB27E00020D8
:101D70003B4652463946CDE9004502904846FFF7BA
:101D800055FF002043464A463946CDE900450290BA
:101D90004846FFF74BFF0020434652463946CDE9FF
:101DA000004502905046FFF741FF0020434652464F
:101DB0004146CDE9004502904846FFF737FF00BF96
:101DC000BFE72DE9F84F05460E4691469B46002495
:101DD0004F46C9F1010AC82D01DCC82E04DDD0A090
:101DE00000F0CCFABDE8F88FC5E00A98002850D181
:101DF0000120F21991B22A19009090B25A460B9B19
:101E0000FFF7C3FE0120321991B2EA19009090B297
:101E10005A460B9BFFF7B9FE0120F21991B22A1B1B
:101E2000009090B25A460B9BFFF7AFFE012032198B
:101E300091B2EA1B009090B25A460B9BFFF7A5FEA9
:101E40000120F21B91B22A1B009090B25A460B9BC4
:101E5000FFF79BFE0120321B91B2EA1B009090B26B
:101E60005A460B9BFFF791FE0120F21B91B22A19F3
:101E7000009090B25A460B9BFFF787FE0120321B61
:101E800091B2EA19009090B25A460B9BFFF77DFE83
:101E900062E00A9801285FD1A0465BE0012006EBD2
:101EA000080291B22A19009090B25A460B9BFFF794
:101EB0006CFE0120321991B205EB0802009090B23D
:101EC0005A460B9BFFF761FE012006EB080291B218
:101ED0002A1B009090B25A460B9BFFF756FE01203A
:101EE000321991B2A5EB0802009090B25A460B9BB2
:101EF000FFF74BFE0120A6EB080291B22A1B0090CF
:101F000090B25A460B9BFFF740FE0120321B91B264
:101F1000A5EB0802009090B25A460B9BFFF735FEE6
:101F20000120A6EB080291B22A19009090B25A46FD
:101F30000B9BFFF72AFE0120321B91B205EB080232
:101F4000009090B25A460B9BFFF71FFE08F101006C
:101F50001FFA80F8B845A1DDBAF1000F03DA60007E
:101F6000C01C824405E0E01B4000401D8244781EF6
:101F700087B2601C84B2A7423FF737AF00BF31E79A
:101F80002DE9FC4F0746884692461D46DDF82CB0E9
:101F900062488088B84203DB6048C088404501DA67
:101FA000BDE8FC8FA988CA1701EB5272D21008460F
:101FB000CB1701EB5373DB10A1EBC3030BB1012370
:101FC00000E000231A44EB885A4392B20092AAF12F
:101FD0002000009A504301902968019801EB000904
:101FE000002651E0002440E0BBF1FF0F14D1E117BF
:101FF00004EB5171C910A4EBC1028021114199F881
:102000000020114029B308EB060291B23A1990B2B0
:102010000C9AFFF77CFC1CE0E11704EB5171C9102E
:10202000A4EBC1028021114199F80020114041B177
:1020300008EB060291B23A1990B20C9AFFF767FCCE
:1020400007E008EB060291B23A1990B25A46FFF740
:102050005EFCE11704EB5171C910A4EBC101072923
:1020600001D109F10109601C84B2A888A042BBDC3F
:10207000A888C11700EB5171C910A0EBC10109B1CB
:1020800009F10109701C86B2E888B042AADC00BFE1
:1020900086E72DE9FC4F0746884615461C46DDE9D4
:1020A0000BAB3E46C14620E0A08830441B498988DE
:1020B000884204DD3E46E08848441FFA80F9E08803
:1020C00048441649C988884203DDC146A088304487
:1020D00086B2CDE900AB15F8012B234649463046C0
:1020E000FFF74EFFA088304486B228780028DBD165
:1020F000BDE8FC8F2DE9F04FADF5037D06460F4698
:1021000015469946DDF834B2DDF830A20024A04629
:102110004FF4807143A800F03DF919E05000002011
:102120004552523A636972636C652063656E7465EB
:102130007220706F696E74206F7574206F662073E3
:10214000637265656E2061726561210D0A00000091
:102150004FF4807103A800F01DF943A80290824853
:102160008088B04203DB8048C088B84203DA0DF5AE
:10217000037DBDE8F08F0CE00A2095FBF0F100FB39
:102180001150303003A90855601C04B20A2095FB99
:10219000F0F5002DF0D10BE0601E03A9085C43A907
:1021A00001F8080008F101000FFA80F8601E04B27F
:1021B000002CF1DC4B46CDE900AB39463046029AA3
:1021C000FFF767FF00BFD2E72DE9FF4F85B0054657
:1021D00090469A46DDE9126764A207CA02AC07C4BA
:1021E000BAF8044098F804000A2190FBF1F002A923
:1021F00011F8009053464A46CDE9006728460699F3
:10220000FFF7BEFE98F804000A2190FBF1F201FBF3
:10221000120002A911F80090291988B253464A46C3
:10222000CDE900670699FFF7ABFEA146E11704EB85
:1022300091712A1902EBA101A34604EBDB7201EBB9
:10224000620188B253463A22CDE900670699FFF74A
:1022500097FE98F805000A2190FBF1F002A911F809
:1022600000B004EBD97105EB440202EB610188B2C6
:1022700053465A46CDE900670699FFF781FE98F864
:1022800005000A2190FBF1F201FB120002A911F8EE
:1022900000B004EBD97104EB44022A4402EB610163
:1022A00088B253465A46CDE900670699FFF768FEA3
:1022B00004EBD97105EB840202EB6101A346E2173E
:1022C00004EB9272A1EBA20188B253463A22CDE907
:1022D00000670699FFF754FE98F806000A2190FB64
:1022E000F1F002A911F8009004EB8401294488B2AE
:1022F00053464A46CDE900670699FFF741FE98F834
:1023000006000A2190FBF1F201FB120002A911F86C
:10231000009004EB440105EB410188B253464A4664
:10232000CDE900670699FFF72BFE09B0BDE8F08FF5
:1023300030B502460023002111E0002009E00A4CDC
:10234000648A01FB0403D45C074D2D68EC54441CE3
:10235000A0B2054C648A8442F1DC4C1CA1B2024C50
:10236000A48A8C42E9DC30BD500000203031323389
:102370003435363738390000704700000FB404494F
:1023800010B503AA029800F031F810BC5DF814FBF8
:10239000180000204FF0000200B513469446964600
:1023A000203922BFA0E80C50A0E80C50B1F1200168
:1023B000BFF4F7AF090728BFA0E80C5048BF0CC016
:1023C0005DF804EB890028BF40F8042B08BF704774
:1023D00048BF20F8022B11F0804F18BF00F8012BE6
:1023E000704770477047704770470000074B70B5E3
:1023F0000D467B4400F011F80446284600F020F812
:1024000010B14FF0FF3070BD204670BDE1E2FFFF1C
:1024100001694A1C02610878704700B58FB0CDE9A8
:1024200001310021059105497944CDE90310114698
:10243000684600F02EF80FB000BD0000E5FFFFFF7A
:10244000007B00F080007047754600F03FF8AE4614
:1024500005006946534620F00700854618B020B5B0
:10246000FEF7A4F9BDE820404FF000064FF000074A
:102470004FF000084FF0000B21F00701AC46ACE82C
:10248000C009ACE8C009ACE8C009ACE8C0098D4699
:1024900070472DE9F04106460024D6E90170F56841
:1024A0008046304603E04146B847641C3046A847A2
:1024B0000028F8D12046BDE8F08110B50446AFF3FE
:1024C00000802046BDE81040FDF757BE0048704729
:1024D00078270020FFFFFFFFFFFFFFFFFFFFFFFF49
:1024E000FFFFFFFFFFFFFFFFFFFFFFFFFFFFFFFFFC
:1024F000FFFFFFFFFFFFFFFFFFFFFFFFFFFFFFFFEC
:10250000FFFFFFFFFFFFFFFFFFFFFFFFFFFFFFFFDB
:10251000FFFFFFFFFFFFFFFFFFFFFFFFFFFFFFFFCB
:10252000FFFFFFFFFFFFFFFFFFFFFFFFFFFFFFFFBB
:10253000FFFFFFFFFFFFFFFFFFFFFFFFFFFFFFFFAB
:10254000FFFFFFFFFFFFFFFFFFFFFFFFFFFFFFFF9B
:10255000FFFFFFFFFFFFFFFFFFFFFFFFFFFFFFFF8B
:10256000FFFFFFFFFFFFFFFFFFFFFFFFFFFFFFFF7B
:10257000FFFFFFFFFFFFFFFFFFFFFFFFFFFFFFFF6B
:10258000FFFFFFFFFFFFFFFFFFFFFFFFFFFFFFFF5B
:10259000FFFFFFFFFFFFFFFFFFFFFFFFFFFFFFFF4B
:1025A000FFFFFFFFFFFFFFFFFFFFFFFFFFFFFFFF3B
:1025B000FFFFFFFFFFFFFFFFFFFFFFFFFFFFFFFF2B
:1025C000FFFFFFFFFFFFFFFFFFFFFFFFFFFFFFFF1B
:1025D000FFFFFFFFFFFFFFFFFFFFFFFFFFFFFFFF0B
:1025E000FFFFFFFFFFFFFFFFFFFFFFFFFFFFFFFFFB
:1025F000FFFFFFFFFFFFFFFFFFFFFFFFFFFFFFFFEB
:10260000FFFFFFFFFFFFFFFFFFFFFFFFFFFFF001E7
:10261000FFFFFFFFFFFFFFFFFFFFFFFFFFFFFFFFCA
:10262000FFFFFFFFFFFFFFF001FFFFFFFFFFFFFFC7
:10263000FFFFFFFFFFFFFFFFFFFFFFFFFFFFFFFFAA
:10264000F3BFFFFFFFFFFFFFFFFFFFFFFFFFFFFFE6
:10265000FFFFFFFFFFFFFFFFFFF3BFFFFFFFFFFFD6
:10266000FFFFFFFFFFFFFFFFFFFFFFFFFFFFFFFF7A
:10267000FFFFF39FFFFFFFFFFFFFFFFFFFFFFFFFD6
:10268000FFFFFFFFFFFFFFFFFFFFFFF38FFFFFFFD6
:10269000FFFFFFFFFFFFFFFFFFFFFFFFFFFFFFFF4A
:1026A000FFFFFFFFF103FFFFFFFFFFFFFFFFFFFF44
:1026B000FFFFFFFFFFFFFFFFFFFFFFFFFFF021FF17
:1026C000FFFFFFFFFFFFFFFFFFFFFFFFFFFFFFFF1A
:1026D000FFFFFFFFFFFFF879FFFFFFFFFFFFFFFF97
:1026E000FFFFFFFFFFFFFFFFFFFFFFFFFFFFFFFFFA
:1026F000FDFFFFFFFFFFFFFFFFFFFFFFFFFFFFFFEC
:10270000FFFFFFFFFFFFFFFFFFFFFFFFFFFFFFFFD9
:10271000FFFFFFFFFFFFFFFFFFFFFFFFFFFFFFFFC9
:10272000FFF001FFFFFFFFFFFFFFFFFFFFFFFFFFC6
:10273000FFFFFFFFFFFFFFFFFFFFF001FFFFFFFFB6
:10274000FFFFFFFFFFFFFFFFFFFFFFFFFFFFFFFF99
:10275000FF7FFFF339FFFFFFFFFFFFFFFFFFFFFFDB
:10276000FFFFFFFE0000FFFFF1FC7FFFF339FFFFDB
:10277000FFFFFFFFFFFFFFFFFFFFFFFFFE0000FF68
:10278000FFE1F87FFFF339FFFFFFFFFFFFFFFFFFD0
:10279000FFFFFFFFFFFE0000FFFFE1F07FFFF339C7
:1027A000FFFFFFFFFFFFFFFFFFFFFFFFFFFFFE3801
:1027B00078FFFFE3E07FFFF339FFFFFFFFFFFFFF3D
:1027C000FFFFFFFFFFFFFFFE38F8FFFFE7C47FFFBB
:1027D000F339FFFFFFFFFFFFFFFFFFFFFFFFFFFFDB
:1027E000FE38F8FFFFE38C7FFFF7F9FFFFFFFFFFE5
:1027F000FFFFFFFFFFFFFFFFFFFE38F8FFFFE00CCA
:102800007FFFFFFFFFFFFFFFFFFFFFFFFFFFFFFF58
:10281000FFFFFE38F8FFFFE01C7FFFFFFFFFFFFF19
:10282000FFFFFFFFFFFFFFFFFFFFFFFE38F8FFFF87
:10283000F07C7FFFF001FFFFFFFFFFFFFFFFFFFFC7
:10284000FFFFFFFFFE38F8FFFFFFFFFFFFF001FF74
:10285000FFFFFFFFFFFFFFFFFFFFFFFFFFFE38F857
:10286000FFFFFFFFFFFFF3F9FFFFFFFFFFFFFFFF8A
:10287000FFFFFFFFFFFFFE38F8FFFFFC03FFFFF342
:10288000F9FFFFFFFFFFFFFFFFFFFFFFFFFFFFFE5F
:102890003FF8FFFFF000FFFFF3F9FFFFFFFFFFFF2F
:1028A000FFFFFFFFFFFFFFFFFFFFFFFFFFE0007FD6
:1028B000FFF3F9FFFFFFFFFFFFFFFFFFFFFFFFFF3A
:1028C000FFFFFFFFFFFFE3FC7FFFF1F1FFFFFFFFD3
:1028D000FFFFFFFFFFFFFFFFFFFFFFFFFFFFFFE720
:1028E000FE7FFFF803FFFFFFFFFFFFFFFFFFFFFF7C
:1028F000FFFFFFFFFF1FFFFFE7FE7FFFFC07FFFF5C
:10290000FFFFFFFFFFFFFFFFFFFFFFFFFFFF1FFFB7
:10291000FFE3FC7FFFFFFFFFFFFFFFFFFFFFFFFF66
:10292000FFFFFC7FFFFFFF1FFFFFE0007FFFFFFFB8
:10293000FFFFFFFFFFFFFFFFFFFFFFF87FFFFFFF2E
:102940001FFFFFF000FFFFFFFFFFFFFFFFFFFFFF85
:10295000FFFFFFFFF8FFFFFFFF1FFFFFFC03FFFF6D
:10296000FFFFFFFFFFFFFFFFFFFFFFFFFFF0FFFF86
:10297000FFFF1FFFFFFFFFFFFFFFFFFFFFFFFFFF47
:10298000FFFFFFFFFFFFC0001FFFFF1FFFFFFFFF55
:10299000FFFFFFFFFFFFFFFFFFFFFFFFFFFFFFC086
:1029A000001FFFFFFFFFFFF801FFFFFFFFFFFFFF1B
:1029B000FFFFFFFFFFFFFFFFC0001FFFFFFFFFFF45
:1029C000F000FFFFFFC3FFFFFFFFFFFFFFFFFFFF61
:1029D000FFC0001FFFE00007FFE0007FFFF001FFE6
:1029E000FFFFFFFFFFFFFFFFFFFFFFFFFFFFE00015
:1029F00007FFE3FC7FFFF039FFFFFFFFFFFFFFFF53
:102A0000FFFFFFFFFFFFFFE00007FFE7FE7FFFF68E
:102A100039FFFFFFFFFFFFFFFFFFFFFFFFFFFFFF8C
:102A2000F0000FFFE3FC7FFFF609FFFFFFFFFFFF52
:102A3000FFFFFFFFFFFFFFFFFFF1F8FFFFE0007F59
:102A4000FFF001FFFFFFFFFFFFFFFFFFFFFFFFFFA3
:102A5000FFFFE3F8FFFFF000FFFFF0C3FFFFFFFF02
:102A6000FFFFFFFFFFFFFFFFFFFFFFE3FCFFFFF89C
:102A700001FFFFFFC1FFFFFFFFFFFFFFFFFFFFFFA2
:102A8000FFFF1FFFE3F8FFFFFFFFFFFFFFC1FFFF97
:102A9000FFFFFFFFFFFFFFFFFFFFFF1FFFE1F0FF53
:102AA000FFFFFFFFFFFFFBFFFFFFFFFFFFFFFFFF3A
:102AB000FFFFFFFF1FFFF000FFFFFFFF7FFFFFFF94
:102AC000FFFFFFFFFFFFFFFFFFFFFFFFFF1FFFF005
:102AD00001FFFFE7FC7FFFFFFFFFFFFFFFFFFFFF9F
:102AE000FFFFFFFFFFFFFFFFF803FFFFE3F87FFF9C
:102AF000FFFFFFFFFFFFFFFFFFFFFFFFFFFFFFFFE6
:102B0000FFFF1FFFFFE0E07FFFFFFFFFFFFFFFFF73
:102B1000FFFFFFFFFFFFFFFFFFFFFFFFFFFFF001D2
:102B2000FFFFFFFFFFFFFFFFFFFFFFFFFFFFFFFFB5
:102B30008C7FFFFFE7FFFFF803FFFFFFFFFFFFFFB3
:102B4000FFFFFFFFFFFFFFFFF00C3FFFF9C1FFFF9B
:102B5000FC07FFFFF001FFFFFFFFFFFFFFFFFFFF8D
:102B6000FFC00C1FFFF180FFFFF803FFFFF001FF24
:102B7000FFFFFFFFFFFFFFFFFFFFC00E1FFFF18002
:102B8000FFFFE040FFFFF339FFFFFFFFFFFFFFFF05
:102B9000FFFFFFC01F1FFFE198FFFFE1F07FFFF382
:102BA00039FFFFFFFFFFFFFFFFFFFFFFC71F1FFFF3
:102BB000E31CFFFFE3F87FFFF339FFFFFFFFFFFF99
:102BC000FFFFFFFFFFC71F1FFFE318FFFFEFFE7FA1
:102BD000FFF339FFFFFFFFFFFFFFFFFFFFFFC70E00
:102BE0001FFFE339FFFFFFFF7FFFF239FFFFFFFF0A
:102BF000FFFFFFFFFFFFFFC7001FFFE001FFFFFF19
:102C0000FFFFFFF001FFFFFFFFFFFFFFFFFFFFFFE1
:102C1000C7803FFFE000FFFFFDFF7FFFF883FFFF5E
:102C2000FFFFFFFFFFFFFFFFFFC7C07FFFF000FFB9
:102C3000FFF1FC7FFFFFFFFFFFFFFFFFFFFFFFFF35
:102C4000FFFFFFF1FFFFF800FFFFE1F87FFFFFFF4D
:102C5000FFFFFFFFFFFFFFFFFFFFFFFFFFFFFFFF84
:102C6000FFFFFFE1F07FFFF001FFFFFFFFFFFFFF2E
:102C7000FFFFFFFFFFF0FFFFFFFFFFFFE7E07FFF2A
:102C8000F001FFFFFFFFFFFFFFFFFFFFFFFFE0FF80
:102C9000FFFFFFFFFFE7C47FFFF001FFFFFFFFFF24
:102CA000FFFFFFFFFFFFFF80FFFFE00007FFE30CD8
:102CB0007FFFFFF9FFFFFFFFFFFFFFFFFFFFFFFFAA
:102CC00000FFFFE00007FFE01C7FFFFFF9FFFFFFB1
:102CD000FFFFFFFFFFFFFFFFFC18FFFFE00007FF04
:102CE000F03C7FFFFFF9FFFFFFFFFFFFFFFFFFFF4C
:102CF000FFF838FFFFE00007FFF8FC7FFFFFF9FF58
:102D0000FFFFFFFFFFFFFFFFFFFFE078FFFFF1F195
:102D1000FFFFFFFFFFFFFFF9FFFFFFFFFFFFFFFFC9
:102D2000FFFFFFC0001FFFE3F8FFFFFFFFFFFFFFF4
:102D3000FFFFFFFFFFFFFFFFFFFFFFFFC0001FFFC1
:102D4000E3FCFFFFFC01FFFFFFFDFFFFFFFFFFFFB5
:102D5000FFFFFFFFFFC0001FFFE3F8FFFFF000FFD2
:102D6000FFFFE1FFFFFFFFFFFFFFFFFFFFFFC000CF
:102D70001FFFE1F0FFFFE0007FFFFF81FFFFFFFF8C
:102D8000FFFFFFFFFFFFFFFFF8FFFFE000FFFFE394
:102D9000FC7FFFFC07FFFFFFFFFFFFFFFFFFFFFFC1
:102DA000FFF8FFFFF001FFFFE7FE7FFFF04FFFFF9F
:102DB000FFFFFFFFFFFFFFFFFFFFFFFFFFF803FF26
:102DC000FFE7FE7FFFF0EFFFFFFFFFFFFFFFFFFFCB
:102DD000FFFFFFFFFFFFFE0FFFFFE1F07FFFF00FA0
:102DE000FFFFFFFFFFFFFFFFFFFFFFFFFFFFFFFFF3
:102DF000FFFFFFE0007FFFFC07FFFFFFFFFFFFFF7C
:102E0000FFFFFFFFFFFFFFFFFFFFFFFFF001FFFFDF
:102E1000FF81FFFFFFFFFFFFFFFFFFFFFFFFFFFF40
:102E2000FFFC07FFFFFF0FFFFFFFF1FFFFFFFFFFAB
:102E3000FFFFFFFFFFFFFFFFFFFFF801FFFFFFFFA7
:102E4000FFFFFFFFFFFFFFFFFFFFFFFFFFFFFFFF92
:102E5000FFFFFFF001FFFFFFFFFFFFFFFFFFFFFF8F
:102E6000FFFFFFFFFFFFFFFFFFFFFFFFE010FFFF80
:102E7000F801FFFFFF1FFFFFFFFFFFFFFFFFFFFF47
:102E8000FFFFFFFFFFE398FFFFF000FFFFF807FFE2
:102E9000FFFFFFFFFFFFFFFFFFFFFFFFFFFFE39CC1
:102EA000FFFFE0007FFFF003FFFFFFFFFFFFFFFFDB
:102EB000FFFFFFC0001FFFE398FFFFE3FC7FFFF36E
:102EC000F1FFFFFFFFFFFFFFFFFFFFFFC0001FFF3E
:102ED000E198FFFFE7FE7FFFF3F9FFFFFFFFFFFF32
:102EE000FFFFFFFFFFC0001FFFF010FFFFE3FC7FAD
:102EF000FFF3F9FFFFFFFFFFFFFFFFFFFFFFFFFFF4
:102F0000FFFFF011FFFFE0007FFFF3F1FFFFFFFF86
:102F1000FFFFFFFFFFFFFFFFFFFFFFF813FFFFF0C3
:102F200000FFFFF1E1FFFFFFFFFFFFFFFFFFFFFFDC
:102F3000FFFFFFFFFE1FFFFFF801FFFFF1E3FFFFB1
:102F4000FFFFFFFFFFFFFFFFFFFFFFFFFFFFFFFF91
:102F5000FFFFFFFFFFF9E7FFFFFFFFFFFFFFFFFF9F
:102F6000FFFFFE001FFFFFFFFFFFFFFFFFFFFFFF51
:102F7000FFFFFFFFFFFFFFFFFFFFFFFE001FFFFF41
:102F8000FFFFFFFFFFFFFFFFFFFFFFFFFFFFFFFF51
:102F9000FF80FFFFFE001FFFE000FFFFFFFFFFFFBE
:102FA000F001FFFFFFFFFFFFFFF000FFFFFE001F2C
:102FB000FFE000FFFFFFFFFFFFF001FFFFFFFFFF4C
:102FC000FFFE0000FFFFFE3FFFFFE000FFFFFFFFEF
:102FD000FFFFFF1FFFFFFFFFFFFFF00000FFFFFEEF
:102FE0007FFFFFF07FFFFFFFFFFFFFFE3FFFFFFFC1
:102FF000FFFFFF800000FFFFFC7FFFFFE1FFFFFFFF
:10300000FFFFFFFFFC3FFFFFFFFFFFF0000000FF9F
:10301000FFFC3FFFFFE3FFFFFFFFFFFFFFF80FFF96
:10302000FFFFFFFFC0000000FFFFFC001FFFE1FFEC
:10303000FFFFE0007FFFF183FFFFFFFFFE000000C6
:1030400000FFFFFE001FFFF7FFFFFFE0007FFFF321
:10305000E1FFFFFFFFE000000000FFFFFE001FFF99
:10306000FFFFFFFFE0007FFFF7F1FFFFFFFF8000A2
:10307000000000FFFFFF801FFFFFFFFFFFE78FFF44
:10308000FFFFFDFFFFFFF800003C0000FFFFFFFF18
:10309000FFFFFFFFFFFFE78FFFFFFFFFFFFFFFF0D7
:1030A0000000FF8000FFFFFFFFFFFFFFFFFFFFE7C4
:1030B0008FFFFFFFFFFFFFFFC00001FFC000FFFF0A
:1030C000FFE3FFFFFFFFFFFFE78FFFFFFFFFFFFFB4
:1030D000FF80000783E000FFFFFF807FFFFFFFFF0F
:1030E000FFE38FFFFFFFFFFFFFFF00000701E0008E
:1030F000FFFFFF003FFFFFFFFFFFE01FFFFFFFFF9E
:10310000FFFFFF00000700E000FFFFFE001FFFFFC2
:10311000FFFFFFE01FFFFFFFFFFFFFFF00000E00AC
:103120006000FFFFFE3E1FFFFFFFFFFFF03FFFFFBE
:10313000FFC3FFFFFFC0000E006000FFFFFC7F1F0A
:10314000FE0000FFFFFFFFFFFFF881FFFFFFF00021
:103150000E00E000FFFFFC7F9FFE0000FFFFFFFF6F
:10316000FFFFF019FFFFFFFE000F00E000FFFFFC74
:103170007F1FFE0000FFFFFFFFFFFFF639FFFFFF8D
:10318000FFC00701E000FFFFFE1E1FFE0000FFFF63
:10319000E6007FFFF619FFFFFFFFE00781E000FF79
:1031A000FFFE1C1FFFF8FFFFFFE6007FFFF001FF9F
:1031B000FFFFFFE003FFC000FFFFFF1E3FFFF8FF20
:1031C000FFFFE6007FFFF0C3FFFFFFFFE000FF808F
:1031D00000FFFFFFBE7FFFF8FFFFFFFFFFFFFFF9CC
:1031E000C3FFFFFFFFE0007E0000FFFFFFFFFFFFC8
:1031F000F8FFFFFFFFFFFFFFFFC1FFFFFFFFE00042
:10320000000000FFFFFFFFFFFFF8FFFFFFFEFF7F53
:10321000FFFFFBFFFFFFFFE000000000FFFFFFFFDD
:10322000FFFFF8FFFFFFFE7C7FFFFFFFFFFFFFFFB9
:10323000E000000000FFFFC0001FFE0000FFFFFED7
:10324000187FFFFFFFFFFFFFFFE000000000FFFF10
:10325000C0001FFE0000FFFFFE007FFFFFFFFFFF1B
:10326000FFFFE000000000FFFFC0001FFE0000FFA6
:10327000FFFF01FFFFFFFFFFFFFFFFE00000000077
:10328000FFFFC0001FFE0000FFFFFF81FFFFFFFFE9
:10329000FFFFFFFFE000000000FFFFFE3FFFFFFF1A
:1032A000FFFFFFFE00FFFFF7FFFFFFFFFFE0000053
:1032B0000000FFFFFE7FFFFFFFFFFFFFFE107FFF0D
:1032C000F03FFFFFFFFFE000000000FFFFFC7FFF7B
:1032D000FFFFFEFFFFFE7C7FFFF003FFFFFFFFE02D
:1032E00000000000FFFFFC7FFFFFFFF0FFFFFEFE7E
:1032F0007FFFFF01FFFFFFFFE000000000FFFFFC7A
:10330000001FFFFFC0FFFFFFFFFFFFFF81FFFFFF69
:10331000FFE000000000FFFFFE001FFFFE00FFFFB8
:10332000FFFFFFFFFC03FFFFFFFFF000FC0000FFBB
:10333000FFFE001FFFF801FFFFFF81FFFFF01FFFEF
:10334000FFFFFFF001FF0000FFFFFF001FFFC00FA6
:10335000FFFFFF00FFFFF0FFFFFFFFFFF003CFC005
:1033600000FFFFFFFFFFFF000FFFFFFE007FFFF0EA
:103370000FFFFFFFFFF00703C000FFFFFFFFFFFE8F
:10338000018FFFFFFE647FFFFE01FFFFFFFFE006EE
:1033900001E000FFFFFFFFFFFE0F8FFFFFFCE67F56
:1033A000FFFFC1FFFFFFFF800E00E000FFFFFFFFF8
:1033B000FFFE038FFFFFFC667FFFFE01FFFFFFFEA6
:1033C000000E00E000FFFFFFFFFFFE000FFFFFFE0B
:1033D000247FFFF007FFFFFFF8000E00E000FFFF73
:1033E000FFFFFFFF800FFFFFFE047FFFF07FFFFF67
:1033F000FFE0000E00E000FFFFFFFFFFFFF007FF10
:10340000FFFF04FFFFFFFFFFFFFF80000601E0005A
:10341000FFFFFFFFFFFFFC00FFFFFFC7FFFFFFFFF6
:10342000FFFFFF00000701E000FFFFFFFFFFFFFFBE
:1034300080FFFFFFFFFFFFF001FFFFFE000003E73B
:10344000C000FFFFFFFFFFFFFFE0FFFFFFFFFFFFE9
:10345000F001FFFFFE000001FF8000FFFFFFFFFF04
:10346000FFFFFCFFFFE0007FFFFF3FFFFFFE0000CC
:1034700000FF0000FFFFFFFFFFFFFFFFFFFFE00077
:103480007FFFFF3FFFFFFFC000000C0000FFFFFFBA
:10349000FFFFFFFFFFFFFFE0007FFFFF3FFFFFFF9A
:1034A000F00000000000FFFFFFFFFFFE3FFFFFFFF7
:1034B000FFFFFFFFFF3FFFFFFFFE0000000000FFD8
:1034C000FFFFFFFFFE3FFFFFFFFFFFFFFFFF3FFF8D
:1034D000FFFFFFC000000000FFFFFFFFFFFE3FFFF8
:1034E000FFFFFFBDFFFFF001FFFFFFFFF80000003F
:1034F00000FFFFFFFFFFFE3FFFFFFFFE0CFFFFF09F
:1035000001FFFFFFFFFF80000000FFFFFFFFFFFE46
:103510003FFFFFFFFE0C7FFFFFFFFFFFFFFFFFFCF2
:10352000000000FFFFFFFFFFFE0000FFFFFC047F25
:10353000FFFFFFFFFFFFFFFFFF800000FFFFFFFF18
:10354000FFFE0000FFFFFCC67FFFF001FFFFFFFF53
:10355000FFFFFC0000FFFFFFFFFFFE0000FFFFFC7E
:10356000C67FFFF001FFFFFFFFFFFFFFF800FFFF37
:10357000FFFFFFFE3FFFFFFFFC667FFFF001FFFF45
:10358000FFFFFFFFFFFFE0FFFFFFFFFFFE3FFFFF2B
:10359000FFFE207FFFFFFFFFFFFFFFFFFFFFFFFF9B
:1035A000FFFFFFFFFFFE3FFFFFFFFE207FFFFFFF4C
:1035B000FFFFFFFFFFFFFFFFFFFFFFFFFFFFFE3FDC
:1035C000FFFFFFFF70FFFFF3FFFFFFFFFFFFFFFFA6
:1035D000FFFFFFFFFFFFFFFE3FFFFFFFFFFFFFFFBC
:1035E000F3FFFFFFFFFFFFFFFFFFFFFFFFFFFFFFF7
:1035F000FFFFFFFFFFFFFFFFFFF3FFFFFFFFFFFFE7
:10360000FFFFFFFFFFFFFFFFFFFFFFFFFFFFFFFFCA
:10361000FFFFF001FFFFFFFFFFFFFFFFFFFFFFFFC7
:10362000FFFFFFFFFFFFFFFFFFFFFFF001FFFFFFB7
:10363000FFFFFFFFFFFFFFFFFFFFFFFFFFFFFFFF9A
:10364000FFFFFFFFF3FFFFFFFFFFFFFFFFFFFFFF96
:10365000FFFFFFFFFFFFFFFFFFFFFFFFFFF3FFFF86
:10366000FFFFFFFFFFFFFFF8FFFFFFFFFFFFFFFF71
:10367000FFFFFFFFFFFFF3FFFFFFFFFFFFFFFFFE67
:1036800000FFFFFFFFFFFFFFFFFFFFFFFFFFFFFF49
:10369000FFFFFFFFFFFFFFFF8000FFFFFFFFFFFFB8
:1036A000FFFFFFFFFFFFFFFFFFFFFFFFFFFFFFFC2D
:1036B000000000FFFFFFFFFFFFFFFFFFFFFFFFFF17
:1036C000FFF001FFFFFFFFFFF0000000FFFFFFFF23
:1036D000FFFFFFFFFFFFFFFFFFFFF001FFFFFFFF07
:1036E000FFE0000000FFFFFFFFFFFFFFFFFFFFFF06
:1036F000FFFFFFF339FFFFFFFFFFE0000000FFFFC8
:10370000FFFFFFFFFFFFFFFFFFFFFFFFF339FFFF9B
:10371000FFFFFFE0000003FFFFFFFFFFFFFFFFFFD2
:10372000FFFFFFFFFFF339FFFFFFFFFFE000007F18
:10373000FFFFFFFFFFFFFFFFFFFFFFFFFFFFF3396B
:10374000FFFFFFFFFFFC001FFFFFFFFFFFFFFFFF6B
:10375000FFFFFFFFFFFFFFF339FFFFFFFFFFFFFF4B
:10376000FFFFFFFFFFFFFFFFFFFFFFFFFFFFFFFF69
:10377000F339FFFFFFFFFFFFFFFFFFFFFFFFFFFF2B
:10378000FFFFFFFFFFFFFFFFFFFFF9FFFFFFFFFF4F
:10379000FFFFFFFFFFFFFFFFFFFFFFFFFFFFFFFF39
:1037A000FFFFFFFFFFFFFFFFFFFFFFFFFFFFFFFF29
:1037B000FFFFFFFFFFFFFFFFFFFFFFFFFFFFFFFF19
:1037C000FFFFFFFFFFFFFFFFFFFFFFFFFFFFFFFF09
:1037D000FFFFFFFFFFFFFFFFFFFFFFFFFFFFFFFFF9
:1037E000FFFFFFFFFFFFFFFFFFFFFFFFFFFFFFFFE9
:1037F000FFFFFFFFFFFFFFFFFFFFFFFFFFFFFFFFD9
:10380000FFFFFFFFFFFFFFFFFFFFFFFFFFFFFFFFC8
:10381000FFFFFFFFFFFFFFFFFFFFFFFFFFFFFFFFB8
:10382000FFFFFFFFFFFFFFFFFFFFFFFFFFFFFFFFA8
:10383000FFFFFFFFFFFFFFFFFFFFFFFFFFFFFFFF98
:10384000FFFFFFFFFFFFFFFFFFFFFFFFFFFFFFFF88
:10385000FFFFFFFFFFFFFFFFFFFFFFFFFFFFFFFF78
:10386000FFFFFFFFFFFFFFFFFFFFFFFFFFFFFFFF68
:10387000FFFFFFFFFFFFFFFFFFFFFFFFFFFFFFFF58
:10388000FFFFFFFFFFFFFFFFFFFFFFFFFFFFFFFF48
:10389000FFFFFFFFFFFFFFFFFFFFFFFFFFFFFFFF38
:1038A000FFFFFFFFFFFFFFFFFFFFFFFFFFFFFFFF28
:1038B000FFFFFFFFFFFFFFFFFFFFFFFFFFFFFFFF18
:1038C000FFFFFFFFFFFFFFFFFFFFFFFFFFFFFFFF08
:1038D000FFFFFFFFFFFFFFFFFFFFFFFFFFFFFFFFF8
:1038E000FFFFFFFFFFFFFFFFFFFFFFFFFFFFFFFFE8
:1038F000FFFFFFFFFFFFFFFFFFFFFFFFFFFFFFFFD8
:10390000FFFFFFFFFFFFFFFFFFFFFFFFFFFFFFFFC7
:10391000FFFFFFFFFFFFFFFFFFFFFFFFFFFFFFFFB7
:10392000FFFFFFFFFFFFFFFFFFFFFFFFFFFFFFFFA7
:10393000FFFFFFFFFFFFFFFFFFFFFFFFFFFFFFFF97
:10394000FFFFFFFFFFFFFFFFFFFFFFFFFFFFFFFF87
:10395000FFFFFFFFFFFFFFFFFFFFFFFFFFFFFFFF77
:10396000FFFFFFFFFFFFFFFFFFFFFFFFEFFFFFFF77
:10397000FFFFFFFFFFFFFFFFFFFFFFFFFFFFFFFF57
:10398000FFFFFFFFF000037FFFFFFFFFFFFFFFFFD1
:10399000FFFFFFFFFFFFFFFFFFFFFFFFFFC0000074
:1039A0001FFFFFFFFFFFFFFFFFFFFFFFFFFFFFFF07
:1039B000FFFFFFFFFFFFE0000000FFFFFFFFFFFF33
:1039C000FFFFFFFFFFFFFFFFFFFFFFFFFFFFFFC046
:1039D000000000FFFFFFFFFFFFFFFFFFFFFFFFFFF4
:1039E000FFFFFFFFFFFFFFFFF0000000FFFFFFFFF3
:1039F000FFFFFFFFFFFFFFFFFFFFFFFFFFFFFFFFD7
:103A0000FFF8000000FFFFFFFFFFFFFFFFFFFFFFCA
:103A1000FFFFFFFFFFFFFFFFFFFFFF188000FFFF1B
:103A2000FFFFFFFFFFFFFFFFFFFFFFFFFFFFFFFFA6
:103A3000FFFFFFFFFFFE00FFFFFFFFFFFFFFFFFF96
:103A4000FFFFFFFFFFFFFFFFFFFFFFFFFFFFFFC0C5
:103A5000FFFFFFFFFFFFFFFFFFFFFFFFFFFFFFFF76
:103A6000FFFFFFFFFFFFFFFFFEFFFFFFFFFFFFFF67
:103A7000FFFFFFFFFFFFFFFFFFFFFFFFFFFFFFFF56
:103A8000FFFFFFFFFFFFFFFFFFFFFFFFFFFFFFFF46
:103A9000FFFFFFFFFFFFFFFFFFFFFFFFFFFFFFFF36
:103AA000FFFFFFFFFFFFFFFFFFFFFFFFFFFFFFFF26
:103AB000FFFFFFFFFFFFFFFFFFFFFFFFFFFFFFFF16
:103AC000FFFFFFFFFFFFFFFFFFFFFFFFFFFFFFFF06
:103AD000FFFFFFFFFFFFFFFFFFFFFFFFFFFFFFFFF6
:103AE000FFFFFFFFFFFFFFFFFFFFFFFFFFFFFFFFE6
:103AF000FFFFFFFFFFFFFFFFFFFFFFFFFFFFFFFFD6
:103B0000FFFFFFFFFFFFFFFFFFFFFFFFFFFFFFFFC5
:103B1000FFFFFFFFFFFFFFFFFFFFFFFFFFFFFFFFB5
:103B2000FFFFFFFFFFFFFFFFFFFFFFFFFFFFFFFFA5
:103B3000FFFFFFFFFFFFFFFFFFFFFFFFFFFFFFFF95
:103B4000FFFFFFFFFFFFFFFFFFC0FFFFFFFFFFFFC4
:103B5000FFFFFFFFFFFFFFFFFFFFFFFFFFFFFFFF75
:103B6000FFC000FFFFFFFFFFFFFFFFFFFFFFFFFFA3
:103B7000FFFFFFFFFFFFFFFFFFE80000FFFFFFFF6A
:103B8000FFFFFFFFFFFFFFFFFFFFFFFFFFFFFFFF45
:103B9000FFFE000000FFFFFFFFFFFFFFFFFFFFFF33
:103BA000FFFFFFFFFFFFFFFFFFFFF0000000FFFF31
:103BB000FFFFFFFFFFFFFFFFFFFFFFFFFFFFFFFF15
:103BC000FFFFFF00000000FFFFFFFFFFFFFFFFFF01
:103BD000FFFFFFFFFFFFFFFFFFFFFFF00000000000
:103BE000FFFFFFFFFFFFFFFFFFFFFFFFFFFFFFFFE5
:103BF000FFFFFFFF8000000000FFFFFFFFFFFFFF50
:103C0000FFFFFFFFFFFFFFFFFFFFFFFFFC000000C4
:103C10000000FFFFFFFFFFFFFFFFFFFFFFFFFFFFB2
:103C2000FFFFFFFFFFE00000000000FFFFFFFFFFBE
:103C3000FFFFFFFFFFFFFFFFFFFFFFFFFFFF800012
:103C400000FF0000FFFFFFFFFFFFFFFFFFFFFFFF81
:103C5000FFFFFFFFFFFFFE000001FF8000FFFFFFEF
:103C6000FFFFFFFFFFFFFFFFFFFFFFFFFFFFFFFE65
:103C7000000003FFC000FFFFFFFFFFFFFFFFFFFF8C
:103C8000FFFFFFFFFFFFFFFFFF000007C3E000FF94
:103C9000FFFFFFFFFFFFFFFFFFFFFFFFFFFFFFFF34
:103CA000FFFF80000F01E000FFFFFFFFFFFFFFFFAE
:103CB000FFFFFFFFFFFFFFFFFFFFFFE0000E01F030
:103CC00000FFFFFFFFFFFFFFFFFFFFFFFFFFFFFF03
:103CD000FFFFFFFFF0000E00F000FFFFFFFFFFFF00
:103CE000FFFFFFFFFFFFFFFFFFFFFFFFFFFE000ED5
:103CF00000F000FFFFFFFFFFFFFFFFFFFFFFFFFFE1
:103D0000FFFFFFFFFFFFFFC00E00E000FFFFFFFF10
:103D1000FFFFFFFFFFFFFFFFFFFFFFFFFFFFFFFFB3
:103D2000E00E01E000FFFFFFFFFFFFFFFFFFFFFFCF
:103D3000FFFFFFFFFFFFFFFFFFF00F03E000FFFFAC
:103D4000FFFFFFFFFFFFFFFFFFFFFFFFFFFFFFFF83
:103D5000FFFFF00787C000FFFFFFFFFFFFFFFFFF30
:103D6000FFFFFFFFFFFFFFFFFFFFFFF003FF8000EC
:103D7000FFFFFFFFFFFFFFFFFFFFFFFFFFFFFFFF53
:103D8000FFFFFFFFF001FF0000FFFFFFFFFFFFFF4E
:103D9000FFFFFFFFFFFFFFFFFFFFFFFFFFF0007CC4
:103DA0000000FFFFFFFFFFFFFFFFFFFFFFFFFFFF21
:103DB000FFFFFFFFFFFFF000000000FFFFFFFFFF1E
:103DC000FFFFFFFFFFFFFFFFFFFFFFFFFFFFFFE022
:103DD00000000000FFFFFFFFFFFFFFFFFFFFFFFFEF
:103DE000FFFFFFFFFFFFFFFFE000000000FFFFFFFE
:103DF000FFFFFFFFFFFFFFFFFFFFFFFFFFFFFFFFD3
:103E0000FFE000000000FFFFFFFFFFFFFFFFFFFFDD
:103E1000FFFFFFFFFFFFFFFFFFFFE000000000FFCD
:103E2000FFFFFFFFFFFFFFFFFFFFFFFFFFFFFFFFA2
:103E3000FFFFFFE000000000FFFFFFFFFFFFFFFFAD
:103E4000FFFFFFFFFFFFFFFFFFFFFFFFE00000009E
:103E500000FFFFFFFFFFFFFFFFFFFFFFFFFFFFFF71
:103E6000FFFFFFFFFFE000000000FFFFFFFFFFFF7D
:103E7000FFFFFFFFFFFFFFFFFFFFFFFFFFFFE00070
:103E8000000000FFFFFFFFFFFFFFFFFFFFFFFFFF3F
:103E9000FFFFFFFFFFFFFFE000000000FFFFFFFF4D
:103EA000FFFFFFFFFFFFFFFFFFFFFFFFFFFFFFFF22
:103EB000E000000000FFFFFFFFFFFFFFFFFFFFFF2D
:103EC000FFFFFFFFFFFFFFFFFFE0007E0000FFFF9F
:103ED000FFFFFFFFFFFFFFFFFFFFFFFFFFFFFFFFF2
:103EE000FFFFE000FF8000FFFFFFFFFFFFFFFFFF7E
:103EF000FFFFFFFFFFFFFFFFFFFFFFE003FFC0002B
:103F0000FFFFFFFFFFFFFFFFFFFFFFFFFFFFFFFFC1
:103F1000FFFFFFFFE007E7E000FFFFFFFFFFFFFFFE
:103F2000FFFFFFFFFFFFFFFFFFFFFFFFFFE0078136
:103F3000E000FFFFFFFFFFFFFFFFFFFFFFFFFFFFAF
:103F4000FFFFFFFFFFFF800F01E000FFFFFFFFFF0C
:103F5000FFFFFFFFFFFFFFFFFFFFFFFFFFFFFC0073
:103F60000F00F000FFFFFFFFFFFFFFFFFFFFFFFF5E
:103F7000FFFFFFFFFFFFFFF0000F00F000FFFFFF5C
:103F8000FFFFFFFFFFFFFFFFFFFFFFFFFFFFFFFF41
:103F900080000F00F000FFFFFFFFFFFFFFFFFFFFAC
:103FA000FFFFFFFFFFFFFFFFFE00000F00F000FF1D
:103FB000FFFFFFFFFFFFFFFFFFFFFFFFFFFFFFFF11
:103FC000FFFF00000F01F000FFFFFFFFFFFFFFFFFB
:103FD000FFFFFFFFFFFFFFFFFFFFFF00000783E082
:103FE00000FFFFFFFFFFFFFFFFFFFFFFFFFFFFFFE0
:103FF000FFFFFFFFC00003FFE000FFFFFFFFFFFF29
:10400000FFFFFFFFFFFFFFFFFFFFFFFFFFE00001DC
:10401000FFC000FFFFFFFFFFFFFFFFFFFFFFFFFFEE
:10402000FFFFFFFFFFFFF80000FF0000FFFFFFFFA3
:10403000FFFFFFFFFFFFFFFFFFFFFFFFFFFFFFFF90
:1040400000003C0000FFFFFFFFFFFFFFFFFFFFFF3F
:10405000FFFFFFFFFFFFFFFFFFC000000000FFFFAB
:10406000FFFFFFFFFFFFFFFFFFFFFFFFFFFFFFFF60
:10407000FFFFF800000000FFFFFFFFFFFFFFFFFF53
:10408000FFFFFFFFFFFFFFFFFFFFFFFFC00000007C
:10409000FFFFFFFFFFFFFFFFFFFFFFFFFFFFFFFF30
:1040A000FFFFFFFFFFE0000000FFFFFFFFFFFFFF3C
:1040B000FFFFFFFFFFFFFFFFFFFFFFFFFFFFFF000F
:1040C0000000FFFFFFFFFFFFFFFFFFFFFFFFFFFFFE
:1040D000FFFFFFFFFFFFFFFFF00000FFFFFFFFFFFD
:1040E000FFFFFFFFFFFFFFFFFFFFFFFFFFFFFFFFE0
:1040F000FFFC0000FFFFFFFFFFFFFFFFFFFFFFFFD1
:10410000FFFFFFFFFFFFFFFFFFFFFFC000FFFFFFFD
:10411000FFFFFFFFFFFFFFFFFFFFFFFFFFFFFFFFAF
:10412000FFFFFFFFFF00FFFFFFFFFFFFFFFFFFFF9E
:10413000FFFFFFFFFFFFFFFFFFFFFFFFFFFFFFFF8F
:10414000FFFFFFFFFFFFFFFFFFFFFFFFFFFFFFFF7F
:10415000FFFFFFFFFFFFFFFFFFFFFFFFFFFFFFFF6F
:10416000FFFFFFFFFFFFFFFFFFFFFFFFFFFFFFFF5F
:104E3000FFFFFFFFFFFF80001FFFFFFFFFFFFFFFE0
:104E4000FFFFFFFFFFFFFFFFFFFFFFFFFFFFFF80F1
:104E5000001FFFFFFFFFFFFFFFFFFFFFFFFFFFFF41
:104E6000FFFFFFFFFFFFFFFF80001FFFFFFFFFFFB0
:104E7000FFFFFFFFFFFFFFFFFFFFFFFFFFFFFFFF42
:104E8000FF80001FFFFFFFFFFFFFFFFFFFFFFFFF90
:104E9000FFFFFFFFFFFFFFFFFFFF8F1E1FFFFFFF53
:104EA000FFFFFFFFFFFFFFFFFFFFFFFFFFFFFFFF12
:104EB000FFFFFF8F1E1FFFFFFFFFFFFFFFFFFFFF33
:104EC000FFFFFFFFFFFFFFFFFFFFFFFF8F1E1FFF23
:104ED000FFFFFFFFFFFFFFFFFFFFFFFFFFFFFFFFE2
:104EE000FFFFFFFFFF8F1E1FFFFFFFFFFFFFFFFF03
:104EF000FFFFFFFFFFFFFFFFFFFFFFFFFFFF8F1E13
:104F00001FFFFFFFFFFFFFFFFFFFFFFFFFFFFFFF91
:104F1000FFFFFFFFFFFFFF8F1E1FFFFFFFFFFFFFD2
:104F2000FFFFFFFFFFFFFFFFFFFFFFFFFFFFFFFF91
:104F30008F1E1FFFFFFFFFFFFFFFFFFFFFFFFFFFB2
:104F4000FFFFFFFFFFFFFFFFFF8F1E1FFFFFFFFFA2
:104F5000FFFFFFFFFFFFFFFFFFFFFFFFFFFFFFFF61
:104F6000FFFF8F1E1FFFFFFFFFFFFFFFFFFFFFFF82
:104F7000FFFFFFFFFFFFFFFFFFFFFFFFFF3FFFFF01
:104F8000FFFFFFFFFFFFFFFFFFFFFFFFFFFFFFFF31
:104F9000FFFFFFFFFFFFFFFFFFFFFFFFFFFFFFFF21
:104FA000FFFFFFFFFFFFFFFFFFFFFFFFFFFFFFFF11
:104FB000FFFFFFFFFFFFFFFFFFFFFFFFFFFFFFFF01
:104FC000FFFFFFFFFFFFFFE3FFFFFFFFFFFFFFFF0D
:104FD000FFFFFFFFFFFFFFFFFFFFFFFFFFFFFFFFE1
:104FE000E3FFFFFFFFFFFFFFFFFFFFFFFFFFFFFFED
:104FF000FFFFFFFFFFFFFFFFFFE3FFFFFFFFFFFFDD
:10500000FFFFFFFFFFFFFFFFFFFFFFFFFFFE1FFF91
:10501000FFFFE3FFFFFFFFFFFFFFFFFFFFFFFFFFBC
:10502000FFFFFFFFFFFFFC1FFFFFFFE3FFFFFFFF8F
:10503000FFFFFFFFFFFFFFFFFFFFFFFFFFFFFFFC83
:105040003FFFFFFFE3FFFFFFFFFFFFFFFFFFFFFF4C
:10505000FFFFFFFFFFFFFFFFF87FFFFFFFE3FFFF03
:10506000FFFFFFFFFFFFFFFFFFFFFFFFFFFFFFFF50
:10507000FFE00007FFFFE3FFFFFFFFFFFFFFFFFF72
:10508000FFFFFFFFFFFFFFFFFFFFE00007FFFFFF46
:10509000FFFFFFFFFFFFFFFFFFFFFFFFFFFFFFFF20
:1050A000FFFFFFE00007FFFFFFFFFFFFFFFFFFFF26
:1050B000FFFFFFFFFFFFFFFFFFFFFFFFE00007FF16
:1050C000F80000FFFFFFFFFFFFFFFFFFFFFFFFFFF5
:1050D000FFFFFFFFFFFFFFFFFFF80000FFFFFFFFE5
:1050E000FFFFFFFFFFFFFFFFFFFFFFFFFFFFFFFFD0
:1050F000FFFFF80000FFFFFFFFFFFFFFFFFFFFFFC5
:10510000FFFFFFFFFFFFFFFFFFFFFFFC0001FFFFAF
:10511000FFFFFFFFFFFFFFFFFFFFFFFFFFFFFFFF9F
:10512000FFFFFFFFFC7E3FFFFFFFFFFFFFFFFFFFD3
:10513000FFFFFFFFFFFFFFFFFFFFFFFFFFF8FF1F66
:10514000FFFFFFFFFFFFFFFFFFFFFFFFFFFFFFFF6F
:10515000FFFFFFFFFFFFF8FF1FFFFFFFFFFFFFFF46
:10516000FFFFFFFFFFFFFFFFFFFFFFFFFF87FFF8CE
:105170007E1FFFFFFFFFFFFFFFFFFFFFFFFFFFFFA0
:10518000FFFFFFFFFFFF87FFF8001FFFFFFFFFFF8D
:10519000FFFFFFFFFFFFFFFFFFFFE03FFFFFFF8776
:1051A000FFFC003FFFFFFFFFFFFFFFFFFFFFFFFFD1
:1051B000FFFFFF803FFFFFFF87FFFC007FFFFFFF38
:1051C000FFFFFFFFFFFFFFFFFFFFFFFE003FFFFFAF
:1051D000FFFFFFFF00FFFFFFFFFFFFFFFFFFFFFFDE
:1051E000FFFFFFFFFC003FFFFFFFFFFFFFFFFFFF91
:1051F000FFFFFFFFFFFFFFFFFFFFFFFFFFF8003F85
:10520000FFFFFFFFFFFFFFFFFFFFFFFFFFFFFFFFAE
:10521000FFFFFFFFFFFFF0003FFFFFC61FFFFFFC88
:10522000FFFFFFFFFFFFFFFFFFFFFFFFFFFFFFE0AD
:10523000003FFFF8060FFFFE703FFFFFFFFFFFFF7D
:10524000FFFFFFFFFFFFFFFFC0003FFFE0020FFF78
:10525000FC603FFFFFFFFFFFFFFFFFFFFFFFFFFFC0
:10526000FF80003FFFE00307FFFC201FFFFFFFFF61
:10527000FFFFFFFFFFFFFFFFFFFF80003FFFE00793
:1052800087FFF8621FFFFFFFFFFFFFFFFFFFFFFF2A
:10529000FFFFFF00003FFFE18FC7FFF8E71FFFFFA1
:1052A000FFFFFFFFFFFFFFFFFFFFFFFE00003FFFCD
:1052B000E18787FFF8C71FFFFFFFFFFFFFFFFFFF2B
:1052C000FFFFFFFFFE00003FFFE18307FFF8463FBF
:1052D000FFFFFFFFFFFFFFFFFFFFFFFFFFFC0000DF
:1052E0003FFFE18007FFF8003FFFFFFFFFFFFFFFE9
:1052F000FFFFFFFFFFFFFC00003FFFE1C00FFFF8D3
:10530000001FFFFFFFFFFFFFFFFFFFFFFFFFFFF893
:1053100000003FFFE1E01FFFFC001FFFFFFFFFFF5A
:10532000FFFFFFFFFFFFFFFFC000003FFFFFF87F11
:10533000FFFE001FFFFFFFFFFFFFFFFFFFFFFFFF5D
:10534000FC0000003FFFFFFFFFFFFFFFDFFFFFFF4D
:10535000FFFFFFFFFFFFFFFFFFE00000003FFFFF39
:10536000FFFFFFFFFFFFFFFFFFFFFFFFFFFFFFFF4D
:10537000FFFFC00000003FFFFFF87FFFFFFFFFFFC0
:10538000FFFFFFFFFFFFFFFFFFFFFE000000003FEA
:10539000FFFFE07FFFFFFFFFFFFFFFFFFFFFFFFFBC
:1053A000FFFFFFFC000000003FFFFFC07FFFF80091
:1053B00000FFFFFFFFFFFFFFFFFFFFFFF000000008
:1053C000003FFFFF007FFFF80000FFFFFFFFFFFF30
:1053D000FFFFFFFFFFE0000000003FFFFE0C7FFF2C
:1053E000F80000FFFFFFFFFFFFFFFFFFFFFFC00010
:1053F0000000003FFFF81C7FFFF80000FFFFFFFFE9
:10540000FFFFFFFFFFFFFF80000000003FFFF03CB9
:105410003FFFFC7E3FFFFFFFFFFFFFFFFFFFFFFFA0
:1054200080000000003FFFE00007FFF8FF1FFFFFC4
:10543000FFFFFFFFFFFFFFFFFF00000000003FFF37
:10544000E00007FFF8FF1FFFFFFFFFFFFFFFFFFF69
:10545000FFFE00000000003FFFE00007FFF87F1F95
:10546000FFFFFFFFFFFFFFFFFFFFFC00000000004A
:105470003FFFE00007FFF81C1FFFFFFFFFFFFFFFDC
:10548000FFFFFFFC00000000003FFFFFFC7FFFFC70
:10549000003FFFFFFFFFFFFFFFFFFFFFF8000000DF
:1054A00000003FFFFFFC7FFFFC003FFFFFFFFFFF0F
:1054B000FFFFFFFFFFF800000000003FFFFFFFFFBE
:1054C000FFFE007FFFFFFFFFFFFFFFFFFFFFF0007A
:1054D000000000003FFFFFFFFFFFFFC3FFFFFFFFD4
:1054E000FFFFFFFFFFFFFFF000000000003FFFFF96
:1054F000FFFFFFFFFFFFFFFFFFFFFFFFFFFFFFFFBC
:10550000F000000000003FFFFFFFFFFFFFFFFFFF75
:10551000FFFFFFFFFFFFFFFFFFF000000000003F65
:10552000FFFFFFFFFFFF00FFFFFFFFFFFFFFFFFF8A
:10553000FFFFE000000000003FFFFFFFFFFFFE0055
:105540007FFFFFFFFFFFFFFFFFFFFFE00000000006
:10555000003FFFFFFFFFFFFC003FFFFFFFFFFFFFDC
:10556000FFFFFFFFE000000000003FFFFFFFFFFF25
:10557000F8001FFFFFFFFFFFFFFFFFFFFFE000003E
:105580000000003FFFFFFFFFFFF8661FFFFFFFFF68
:10559000FFFFFFFFFFFFE000000000003FFFFFFFF5
:1055A000FFFFF8E71FFFFFFFFFFFFFFFFFFFFFE029
:1055B00000000000003FFFE00007FFF8E71FFFFFCB
:1055C000FFFFFFFFFFFFFFFFE000000000003FFFC5
:1055D000E00007FFF8661FFFFFFFFFFFFFFFFFFF71
:1055E000FFE000000000003FFFE00007FFFC041F99
:1055F000FFFFFFFFFFFFFFFFFFFFE00000000000D5
:105600003FFFE00007FFFC063FFFFFFFFFFFFFFF3C
:10561000FFFFFFE000000000003FFFFFFFFFFFFE75
:10562000067FFFFFFFFFFFFFFFFFFFFFE00000001F
:1056300000003FFFFFFFFFFFFF86FFFFFFFFFFFFB1
:10564000FFFFFFFFFFE000000000003FFFFFFFFF44
:10565000FFFFFFFFFFFFFFFFFFFFFFFFFFFFE00078
:10566000000000003FFFFF0007FFFFFFFFFFFFFFFD
:10567000FFFFFFFFFFFFFFE000000000003FFFFF14
:105680000007FFFFFFFFFFFFFFFFFFFFFFFFFFFF21
:10569000E000000000003FFFFF0007FFF8001FFFD1
:1056A000FFFFFFFFFFFFFFFFFF8000000000003F44
:1056B000FFFF0007FFF8001FFFFFFFFFFFFFFFFFD7
:1056C000FFFC0000000000003FFFFF0FFFFFF8009D
:1056D0001FFFFFFFFFFFFFFFFFFFF80000000000BC
:1056E000003FFFFF1FFFFFF8001FFFFFFFFFFFFF4F
:1056F000FFFFFFF80000000000003FFFFF3FFFFF3B
:10570000FC3FFFFFFFFFFFFFFFFFFFFFF000000078
:105710000000003FFFFE1FFFFFF87FFFFFFFFFFFBE
:10572000FFFFFFFFFFE00000000000003FFFFE0062
:1057300007FFF87FFFFFFFFFFFFFFFFFFFFFE00016
:1057400000000000003FFFFF0007FFF87FFFFFFFA2
:10575000FFFFFFFFFFFFFFC00000000000003FFF52
:10576000FF0007FFFDFFFFFFFFFFFFFFFFFFFFFF42
:10577000C00000000000003FFFFF8007FFFFFFFFA9
:10578000FFFFFFFFFFFFFFFFFFC000000000000062
:105790003FFFFFFFFFFFFFFFFFFFFFFFFFFFFFFFD9
:1057A000FFFF800000000000003FFFFFFFFFFFFF42
:1057B000FFFFFFFFFFFFFFFFFFFFFF800000000074
:1057C00000003FFFFFFFFFFFFFFFFFFFFFFFFFFFA7
:1057D000FFFFFFFF800000000000003FFFFFF0FF21
:1057E000FFFFFFFFFFFFFFFFFFFFFFFFFF80000046
:1057F000000000003FFFFFC01FFFFFFFFFFFFFFF94
:10580000FFFFFFFFFFFF800000000000003FFFFFE1
:10581000800FFFFFFFFFFFFFFFFFFFFFFFFFFF8086
:105820000000000000003FFFFF000FFFFFFFFFFF31
:10583000FFFFFFFFFFFFFFFF800000000000003FB1
:10584000FFFF0707FFFFFFFFFFFFFFFFFFFFFFFF58
:10585000FF800000000000003FFFFE1FC7FF800028
:105860001FFFFFFFFFFFFFFFFFFF800000000000A2
:10587000003FFFFE3FC7FF80001FFFFFFFFFFFFF4E
:10588000FFFFFF800000000000003FFFFE1FC7FF7A
:1058900080001FFFFFFFFFFFFFFFFFFF80000000F2
:1058A0000000003FFFFF0F07FF80001FFFFFFFFF0B
:1058B000FFFFFFFFFF800000000000003FFFFF0F21
:1058C00007FFFF1FFFFFFFFFFFFFFFFFFFFFC000FE
:1058D00000000000003FFFFF0F0FFFFF1FFFFFFF53
:1058E000FFFFFFFFFFFFFFC00000000000003FFFC1
:1058F000FF8F1FFFFF1FFFFFFFFFFFFFFFFFFFFFE8
:10590000C00000000000003FFFFFFFFFFFFF1FFF80
:10591000FFFFFFFFFFFFFFFFFFC0000000000000D0
:105920003FFFFFFFFFFFFF1FFFFFFFFFFFFFFFFF27
:10593000FFFFC00000000000003FFFFFFFFFFFFF70
:105940001FFFFFFFFFFFFFFFFFFFFFE00000000062
:1059500000003FFFE00007FFFF1FFFFFFFFFFFFF0B
:10596000FFFFFFFFE00000000000003FFFE0000736
:10597000FF80001FFFFFFFFFFFFFFFFFFFE00000B2
:10598000000000003FFFE00007FF80001FFFFFFF57
:10599000FFFFFFFFFFFFF00000000000003FFFE0FF
:1059A0000007FF80001FFFFFFFFFFFFFFFFFFFF06B
:1059B0000000000000003FFFFF0FFFFF80001FFFFF
:1059C000FFFFFFFFFFFFFFFFF80000000000003FA8
:1059D000FFFF1FFFFFFFFFFFFFFFFFFFFFFFFFFFB7
:1059E000FFF80000000000003FFFFF3FFFFFFFFF48
:1059F000FFFFFFFFFFFFFFFFFFFFFC0000000000B5
:105A0000003FFFFE1FFFFFFFFF1FFFFFFFFFFFFF26
:105A1000FFFFFFFC0000000000003FFFFE0007FF4B
:105A2000FFF81FFFFFFFFFFFFFFFFFFFFE0000006B
:105A30000000003FFFFF0007FFFFC01FFFFFFFFF49
:105A4000FFFFFFFFFFFF0000000000003FFFFF001F
:105A500007FFFF001FFFFFFFFFFFFFFFFFFFFF002C
:105A600000000000003FFFFF8007FFF8007FFFFFFE
:105A7000FFFFFFFFFFFFFFFF8000000000003FFF70
:105A8000FFFFFFFFC001FFFFFFFFFFFFFFFFFFFF63
:105A9000FFC000000000003FFFFFFFFFFF8001FF8D
:105AA000FFFFFFFFFFFFFFFFFFFFE0000000000020
:105AB0003FFFFFFFFFFF80E1FFFFFFFFFFFFFFFF53
:105AC000FFFFFFF800000000003FFFFFFFFFFF8126
:105AD000E1FFFFFFFFFFFFFFFFFFFFFFFC000000F4
:105AE00000003FFFFFFFFFFF8061FFFFFFFFFFFFA1
:105AF000FFFFFFFFFFFC00000000003FFFFFFFFF74
:105B0000FF8001FFFFFFFFFFFFFFFFFFFFFFFC0024
:105B1000000000003FFFFFFFFFFFF001FFFFFFFF5E
:105B2000FFFFFFFFFFFFFFF800000000003FFFFF47
:105B3000FFFFFFFC003FFFFFFFFFFFFFFFFFFFFF37
:105B4000F800000000003FFFFFFFFFFFFF801FFF86
:105B5000FFFFFFFFFFFFFFFFFFF800000000003F17
:105B6000FFFFFFFFFFFFF01FFFFFFFFFFFFFFFFF34
:105B7000FFFFF800000000003FFFFFFFFFFFFFFEF8
:105B80001FFFFFFFFFFFFFFFFFFFFFF80000000008
:105B9000003FFFFFFFFFFFFFFF9FFFFFFFFFFFFF34
:105BA000FFFFFFFFF000000000003FFFFFFFFFFFCF
:105BB000FFFFFFFFFFFFFFFFFFFFFFFFFFF0000002
:105BC0000000003FFFFFFFFFFFFFFFFFFFFFFFFFA2
:105BD000FFFFFFFFFFFFF000000000003FFFFFFF9F
:105BE000FFFF8FFFFFFFFFFFFFFFFFFFFFFFFFF044
:105BF00000000000003FFFFFFFFFFF8FFFFFFFFFE0
:105C0000FFFFFFFFFFFFFFFFF000000000003FFF6E
:105C1000FFFFFFFF8FFFFFFFFFFFFFFFFFFFFFFF04
:105C2000FFF800000000003FFFFFFFFFFF8FFFFFB6
:105C3000FFFFFFFFFFFFFFFFFFFFF8000000000076
:105C40003FFFFFFFFFFF8FFFFFFFFFFFFFFFFFFF94
:105C5000FFFFFFF800000000003FFFFFFFFFFF8095
:105C6000001FFFFFFFFFFFFFFFFFFFFFF800000027
:105C700000003FFFFFFFFFFF80001FFFFFFFFFFF50
:105C8000FFFFFFFFFFF800000000003FFFFFFFFFE6
:105C9000FF80001FFFFFFFFFFFFFFFFFFFFFFC0074
:105CA000000000003FFFFFFFFFFF80001FFFFFFF1E
:105CB000FFFFFFFFFFFFFFFC00000000003FFFFFB2
:105CC000FFFFFF8FFFFFFFFFFFFFFFFFFFFFFFFF54
:105CD000FC00000000003FFFFFFFFFFF8FFFFFFF02
:105CE000FFFFFFFFFFFFFFFFFFFE00000000003F80
:105CF000FFFFFFFFFF8FFFFFFFFFFFFFFFFFFFFF24
:105D0000FFFFFE00000000003FFFFFFFFFFF8FFFCF
:105D1000FFFFFFFFFFFFFFFFFFFFFFFF000000008F
:105D2000003FFFFFFFFFFF8FFFFFFFFFFFFFFFFFB2
:105D3000FFFFFFFFFF80000000003FFFFFFFFFFFAE
:105D4000FFFFFFFFFFFFFFFFFFFFFFFFFFFFC000A1
:105D50000000003FFFFFFFFFFFFFFFFFFFFFFFFF10
:105D6000FFFFFFFFFFFFFFC0000000003FFFFFFF3E
:105D7000FFFFFFFFFFFFFFFFFFFFFFFFFFFFFFFF33
:105D8000E0000000003FFFFFFFFFFFFFFFFFFFFFFE
:105D9000FFFFFFFFFFFFFFFFFFF0000000003FFFDE
:105DA000FFFFFFFFFFFFFFFFFFFFFFFFFFFFFFFF03
:105DB000FFFFFC000080003FFFFFFFFFFFFFFFFF32
:105DC000FFFFFFFFFFFFFFFFFFFFFFFF0001C0001E
:105DD0003FFFFFFFFFFFFFFFFFFFFFFFFFFFFFFF93
:105DE000FFFFFFFFFFC007E0003FFFFFFFFFFFFFD8
:105DF000FFFFFFFFFFFFFFFFFFFFFFFFFFFFFFFFB3
:105E0000F0003FFFFFFFFFFFFFFFFFFFFFFFFFFF70
:105E1000FFFFFFFFFFFFFFFFFFF8003FFFFFFFFF58
:105E2000FFFFFFFFFFFFFFFFFFFFFFFFFFFFFFFF82
:105E3000FFFFFE003FFFFFFFFFFFFFFFFFFFFFFF32
:105E4000FFFFFFFFFFFFFFFFFFFFFFFF803FFFFFA1
:105E5000FFFFFFFFFFFFFFFFFFFFFFFFFFFFFFFF52
:105E6000FFFFFFFFFFF03FFFFFFFFFFFFFFFFFFF11
:105E7000FFFFFFFFFFFFFFFFFFFFFFFFFFFFFFFF32
:105E8000FFFFFFFFFFFFFFFFFFFFFFFFFFFFFFFF22
:105E9000FFFFFFFFFFFFFFFFFFFFFFFFFFFFFFFF12
:105EA000FFFFFFFFFFFFFFFFFFFFFFFFFFFFFFFF02
:10608000FFFFFFCFFFFFFFFFFFFFFFFFFFFFFFFF50
:10609000FFFFFFFFFFFFFFFFFFFFFFFF87FFFFFF88
:1060A000FFFFFFFFFFFFFFFFFFFFFFFFFFFFFFFF00
:1060B000FFFFFFFFFFC7FFFFFFFFFFFFFFFFFFFF28
:1060C000FFFFFFFFFFFFFFFFFFFFFFFFFFFFC7FF18
:1060D000FFFFFFFFFFFFFFFFFFFFFFFFFFFFFFFFD0
:1060E000FFFFFFFFFFFFFFC3FFFFFFFFFFFFE7FF14
:1060F000FFFFFFFFFFFFFFFFFFFFFFFFFFFFFFFFB0
:10610000E3FFFFFFFFFFFFE3FFFFFFFFFFFFFFFFD7
:10611000FFFFFFFFFFFFFFFFFFE1FFFFFFFFFFFFAD
:10612000C3FFFFFFFFFFFFFFFFFFFFFFFFFFFFFFBB
:10613000FFFFF1FFFFFFFFFFFF87FFFFFFFFFFFFF5
:10614000FFFFFFFFFFFFFFFFFFFFFFF0FFFFFFFF6E
:10615000FFFF8FFFFFFFFFFFFFFFFFFFFFFFFFFFBF
:10616000FFFFFFFFF8FFFFFFFFFFFF0FFFFFFFFF36
:10617000FFFFFFFFFFFFFFFFFFFFFFFFFFF8FFFF36
:10618000FFFFFFFF1FFFFFFFFFFFFFFFFFFFFFFFFF
:10619000FFFFFFFFFFFFF87FFFE3FFFFFE1FFFFF93
:1061A000FFFFFFFFFFFFFFFFFFFFFFFFFFFFFFFC02
:1061B0007FFFE3FFFFFC3FFFFFFFFFFFFFFFFFFF4E
:1061C000FFFFFFFFFFFFFFFFFC3FFFE3FFFFFC7F41
:1061D000FFFFFFFFFFFFFFFFFFFFFFFFFFFFFFFFCF
:1061E000FFFE3FFFE3FFFFF87FFFFFFFFFFFFFFF23
:1061F000FFFFFFFFFFFFFFFFFFFFFE1FFFE3FFFFAC
:10620000F0FFFFFFFFFFFFFFFFFFFFFFFFFFFFFFAD
:10621000FFFFFFFF1FFFE3FFFFF0FFFFFFFFFFFF99
:10622000FFFFFFFFFFFFFFFFFFFFFFFFFF0FFFE38A
:10623000FFFFE1FFFFFFFFFFFFFFFFFFFFFFFFFF8C
:10624000FFFFFFFFFFFF8FFFE3FFFFE3FFFFFFFF06
:10625000FFFFFFFFFFFFFFFFFFFFFFFFFFFFFF8FBE
:10626000FFE3FFFFC3FFFFFFFFFFFFFFFFFFFFFF96
:10627000FFFFFFFFFFFFFFFF87FFE3FFFF87FFFF3A
:10628000FFFFFFFFFFFFFFFFFFFFFFFFFFFFFFFF1E
:10629000FFC7FFE3FFFF8FFFFFFFFFFFFFFFFFFFD2
:1062A000FFFFFFFFFFFFFFFFFFFFC3FFE3FFFF0F46
:1062B000FFFFFFFFFFFFFFFFFFFFFFFFFFFFFFFFEE
:1062C000FFFFFFE3FFE1FFFF1FFFFFFFFFFFFFFFF8
:1062D000FFFFFFFFFFFFFFFFFFFFFFFFE1FFE1FF0A
:1062E000FE1FFFFFFFFFFFFFFFFFFFFFFFFFFFFF9F
:1062F000FFFFF3FFFFF1FFF1FFFC3FFFFFFFFFFF99
:10630000FFFFFFFFFFFFFFFFFFFFFFE1FFFFF1FFC9
:10631000F1FFFC7FFFFFFFFFFFFFFFFFFFFFFFFF1E
:10632000FFFFFFFFE0FFFFF0FFFFFFF87FFFFFFF32
:10633000FFFFFFFFFFFFFFFFFFFFFFFFFFF07FFFFC
:10634000F8FFFFFFF8FFFFFFFFFFFFFFFFFFFFFF6B
:10635000FFFFFFFFFFFFFC3FFFF9FFA03FF0FFFF44
:10636000FFFFFFFFFFFFFFFFFFFFFFFFFFFFFFFE3E
:106370001FFFFFFC0003F1FFFFFFFFFFFFFFFFFF19
:10638000FFFFFFFFFFFFFFFFFF07FFFFF00000FB26
:10639000FFFFFFFFFFFFFFFFFFFFFFFFFFFFFFFF0D
:1063A000FFFF83FFFFC000003FFFFF3FFFFFFFFF36
:1063B000FFFFFFFFFFFFFFFFFFFFFFC1FFFF000029
:1063C000000FFFFC1FFFFFFFFFFFFFFFFFFFFFFFAF
:1063D000FFFFFFFFE0FFFE00000007FFF03FFFFFB1
:1063E000FFFFFFFFFFFFFFFFFFFFFFFFFFF07FF853
:1063F00000000001FFE07FFFFFFFFFFFFFFFFFFF47
:10640000FFFFFFFFFFFFFC3FF000000000FF81FFE8
:10641000FFFFFFFFFFFFFFFFFFFFFFFFFFFFFFFE8D
:106420001FE0000000007F03FFFFFFFFFFFFFFFFF3
:10643000FFFFFFFFFFFFFFFFFF07C0000000003C62
:106440000FFFFFFFFFFFFFFFFFFFFFFFFFFFFFFF4C
:10645000FFFF8380000000001E3FFFFFFFFFFFFFE4
:10646000FFFFFFFFFFFFFFFFFFFFFFC180000000F6
:10647000001E7FFFFFFFFFFFFFFFFFFFFFFFFFFF8C
:10648000FFFFFFFFE100000000000FFFFFFFFFFF25
:10649000FFFFFFFFFFFFFFFFFFFFFFFFFFFA00000F
:1064A00000000007FFFFFFFFFFFFFFFFFFFFFFFFF1
:1064B000FFFFFFFFFFFFFE000000000007FFFFFFE0
:1064C000FFFFFFFFFFFFFFFFFFFFFFFFFFFFFFFCDF
:1064D000000000000003FFFFFFFFFFFFFFFFFFFFC3
:1064E000FFFFFFFFFFFFFFFFFC000000000001FFB8
:1064F000FFFFFFFFFFFFFFFFFFFFFFFFFFFFFFFFAC
:10650000FFFC000000000001FFFFFFFFFFFFFFFF97
:10651000FFFFFFFFFFFFFFFFFFFFF800000000008D
:1065200001FFFFFFFFFFFFFFFFFFFFFFFFFFFFFF79
:10653000FFFFFFF8000000000001FFFFFFFFFFFF6B
:10654000FFFFFFFFFFFFFFFFE0FFFFFFF80000007E
:10655000000001FFFFFFFFFFFFFFFFFFFFFFFFFF47
:10656000FFE003FFFFF0000000000001FFFFFFFF5E
:10657000FFFFFFFFFFFFFFFFFFFFE00007FFF80047
:106580000000000001FFFFFFFFFFFFFFFFFFFFFF15
:10659000FFFFFFFE00001FF8000000000003FFFFE8
:1065A000FFFFFFFFFFFFFFFFFFFFFFFFFFF8000000
:1065B00070000000000007FFFFFFFFFFFFFFFFFF6D
:1065C000FFFFFFFFFFFFFFE00030000000000007BB
:1065D000FFFFFFFFFFFFFFFFFFFFFFFFFFFFFFFFCB
:1065E000FFC03000000000000FFFFFFFFFFFFFFFB4
:1065F000FFFFFFFFFFFFFFFFFFFFFF300000000076
:10660000000FFFFFFFFFFFFFFFFFFFFFFFFFFFFF89
:10661000FFFFFFFFF800000000001FFFFFFFFFFF6C
:10662000FFFFFFFFFFFFFFFFFFFFFFFFFFF800007F
:106630000000007FFFFFFFFFFFFFFFFFFFFFFFFFE7
:10664000FFFFFFFFFFFFF80000000003FFFFFFFF59
:10665000FFFFFFFFFFFFFFFFFFFFFFFFFFFFFFF851
:10666000000000001FFFFFFFFFFFFFFFFFFFFFFF16
:10667000FFFFFFFFFFFFFFFFF800000000FFFFFF2D
:10668000FFFFFFFFFFFFFFFFFFFFFFFFFFFFFFFF1A
:10669000FFF800000001FFFFFFFFFFFFFFFFFFFF0C
:1066A000FFFFFFFFFFFFFFFFFFFFF800000007FFF6
:1066B000FFFFFFFFFFFFFFFFFFFFFFFFFFFFFFFFEA
:1066C000FFFFFFFC0000001FFFFFFFFFFFFFFFFFBA
:1066D000FFFFFFFFFFFFFFFFFFFFFFFFFC000000CA
:1066E0003FFFFFFFFFFFFFFFFFFFFFFFFFFFFFFF7A
:1066F000FFFFFFFFFFFE0000007FFFFFFFFFFFFF28
:10670000FFFFFFFFFFFFFFFFFFFFFFFFFFFFFE0099
:106710000000FFFFFFFFFFFFFFFFFFFFFFFFFFFF87
:10672000FFFFFFFFFFFFFFE7000001FFFFFFFFFF8D
:10673000FFFFFFFFFFFFFFFFFFFFFFFFFFFFFFFF69
:10674000C7000003FFFFFFFFFFFFFFFFFFFFFFFF8B
:10675000FFFFFFFFFFFFFFFFFF07800007FFFFFFB7
:10676000FFFFFFFFFFFFFFFFFFFFFFFFFFFFFFFF39
:10677000FFFE0FC00007FFFFFFFFFFFFFFFFFFFF50
:10678000FFFFFFFFFFFFFFFFFFFFF81FE0000FFF0E
:10679000FFFFFFFFFFFFFFFFFFFFFFFFFFFFFFFF09
:1067A000FFFFFFF07FF0001FFFFFFFFFFFFFFFFF76
:1067B000FFFFFFFFFFFFFFFFFFFFFFFFE0FFF8000E
:1067C0001FFFFFFFFFFFFFFFFFFFFFFFFFFFFFFFB9
:1067D000FFFFFFFFFF81FFFC003FFFFFFFFFFFFF09
:1067E000FFFFFFFFFFFFFFFFFFFFFFFFFFFF07FFB1
:1067F000FE003FFFFFFFFFFFFFFFFFFFFFFFFFFF69
:10680000FFFFFFFFFFFFFF8FFFFF807FFFFFFFFF07
:10681000FFFFFFFFFFFFFFFFFFFFFFFFFFFFFFFF88
:10682000FFFFFFE07FFFFFFFFFFFFFFFFFFFFFFF17
:10683000FFFFFFFFFFFFFFFFFFFFFFFCF87FFFFFF2
:10684000FFFFFFFFFFFFFFFFFFFFFFFFFFFFFFFF58
:10685000FFFFFFFFF87FFFFFFFFFFFFFFFFFFFFFCF
:10686000FFFFFFFFFFFFFFFFFFFFFFFFFFF8FFFF3F
:10687000FFFFFFFFFFFFFFFFFFFFFFFFFFFFFFFF28
:10688000FFFFFFFFFFFFF0FFFFFFFFFFFFFFFFFF27
:10689000FFFFFFFFFFFFFFFFFFFFFFFFFFFFFFE126
:1068A000FFFFFFFFFFFFFFFFFFFFFFFFFFFFFFFFF8
:1068B000FFFFFFFFFFFFFFFFE3FFFFFFFFFFFFFF04
:1068C000FFFFFFFFFFFFFFFFFFFFFFFFFFFFFFFFD8
:1068D000FFC3FFFFFFFFFFFFFFFFFFFFFFFFFFFF04
:1068E000FFFFFFFFFFFFFFFFFFFFC7FFFFFFFFFFF0
:1068F000FFFFFFFFFFFFFFFFFFFFFFFFFFFFFFFFA8
:10690000FFFFFF87FFFFFFFFFFFFFFFFFFFFFFFF0F
:10691000FFFFFFFFFFFFFFFFFFFFFFFF0FFFFFFF77
:10692000FFFFFFFFFFFFFFFFFFFFFFFFFFFFFFFF77
:10693000FFFFFFFFFF1FFFFFFFFFFFFFFFFFFFFF47
:10694000FFFFFFFFFFFFFFFFFFFFFFFFFFFE1FFF38
:10695000FFFFFFFFFFFFFFFFFFFFFFFFFFFFFFFF47
:10696000FFFFFFFFFFFFFC3FFFFFFFFFFFFFFFFFFA
